{
  "_format": "hh-sol-artifact-1",
  "contractName": "WavePortal",
  "sourceName": "contracts/WavePortal.sol",
  "abi": [
    {
      "inputs": [],
      "stateMutability": "nonpayable",
      "type": "constructor"
    },
    {
      "anonymous": false,
      "inputs": [
        {
          "indexed": true,
          "internalType": "address",
          "name": "from",
          "type": "address"
        },
        {
          "indexed": false,
          "internalType": "uint256",
          "name": "timestamp",
          "type": "uint256"
        },
        {
          "indexed": false,
          "internalType": "string",
          "name": "message",
          "type": "string"
        }
      ],
      "name": "NewWave",
      "type": "event"
    },
    {
      "inputs": [],
      "name": "getAllWaves",
      "outputs": [
        {
          "components": [
            {
              "internalType": "address",
              "name": "waver",
              "type": "address"
            },
            {
              "internalType": "string",
              "name": "name",
              "type": "string"
            },
            {
              "internalType": "string",
              "name": "message",
              "type": "string"
            },
            {
              "internalType": "uint256",
              "name": "timestamp",
              "type": "uint256"
            }
          ],
          "internalType": "struct WavePortal.Wave[]",
          "name": "",
          "type": "tuple[]"
        }
      ],
      "stateMutability": "view",
      "type": "function"
    },
    {
      "inputs": [],
      "name": "getTotalWaves",
      "outputs": [
        {
          "internalType": "uint256",
          "name": "",
          "type": "uint256"
        }
      ],
      "stateMutability": "view",
      "type": "function"
    },
    {
      "inputs": [],
      "name": "getWaverLogs",
      "outputs": [
        {
          "components": [
            {
              "internalType": "string",
              "name": "name",
              "type": "string"
            },
            {
              "internalType": "string",
              "name": "addressString",
              "type": "string"
            }
          ],
          "internalType": "struct WavePortal.WaveAddress[]",
          "name": "",
          "type": "tuple[]"
        }
      ],
      "stateMutability": "view",
      "type": "function"
    },
    {
      "inputs": [],
      "name": "getWaversData",
      "outputs": [
        {
          "components": [
            {
              "internalType": "string",
              "name": "name",
              "type": "string"
            },
            {
              "internalType": "uint256",
              "name": "waveCount",
              "type": "uint256"
            },
            {
              "internalType": "string",
              "name": "addressString",
              "type": "string"
            }
          ],
          "internalType": "struct WavePortal.ReturnWaveData[]",
          "name": "",
          "type": "tuple[]"
        }
      ],
      "stateMutability": "view",
      "type": "function"
    },
    {
      "inputs": [
        {
          "internalType": "string",
          "name": "_name",
          "type": "string"
        }
      ],
      "name": "getWavesFor",
      "outputs": [
        {
          "internalType": "uint256",
          "name": "",
          "type": "uint256"
        }
      ],
      "stateMutability": "view",
      "type": "function"
    },
    {
      "inputs": [
        {
          "internalType": "string",
          "name": "_name",
          "type": "string"
        },
        {
          "internalType": "string",
          "name": "_message",
          "type": "string"
        }
      ],
      "name": "wave",
      "outputs": [],
      "stateMutability": "nonpayable",
      "type": "function"
    },
    {
      "inputs": [
        {
          "internalType": "address",
          "name": "",
          "type": "address"
        }
      ],
      "name": "waveData",
      "outputs": [
        {
          "internalType": "string",
          "name": "name",
          "type": "string"
        },
        {
          "internalType": "uint256",
          "name": "waveCount",
          "type": "uint256"
        }
      ],
      "stateMutability": "view",
      "type": "function"
    }
  ],
  "bytecode": "0x60806040523480156200001157600080fd5b506200003c6040518060600160405280602681526020016200297a602691396200005360201b60201c565b6200004d33620000f660201b60201c565b62000352565b620000f3816040516024016200006a91906200029d565b6040516020818303038152906040527f41304fac000000000000000000000000000000000000000000000000000000007bffffffffffffffffffffffffffffffffffffffffffffffffffffffff19166020820180517bffffffffffffffffffffffffffffffffffffffffffffffffffffffff83818316178352505050506200019960201b60201c565b50565b62000196816040516024016200010d919062000306565b6040516020818303038152906040527f2c2ecbc2000000000000000000000000000000000000000000000000000000007bffffffffffffffffffffffffffffffffffffffffffffffffffffffff19166020820180517bffffffffffffffffffffffffffffffffffffffffffffffffffffffff83818316178352505050506200019960201b60201c565b50565b620001bf81620001ba620001c260201b6200102617620001e360201b60201c565b60201c565b50565b60006a636f6e736f6c652e6c6f679050600080835160208501845afa505050565b620001f760201b620014b817819050919050565b6200020162000323565b565b600081519050919050565b600082825260208201905092915050565b60005b838110156200023f57808201518184015260208101905062000222565b60008484015250505050565b6000601f19601f8301169050919050565b6000620002698262000203565b6200027581856200020e565b9350620002878185602086016200021f565b62000292816200024b565b840191505092915050565b60006020820190508181036000830152620002b981846200025c565b905092915050565b600073ffffffffffffffffffffffffffffffffffffffff82169050919050565b6000620002ee82620002c1565b9050919050565b6200030081620002e1565b82525050565b60006020820190506200031d6000830184620002f5565b92915050565b7f4e487b7100000000000000000000000000000000000000000000000000000000600052605160045260246000fd5b61261880620003626000396000f3fe608060405234801561001057600080fd5b506004361061007d5760003560e01c80639a2cdc081161005b5780639a2cdc08146100ed578063bd43a9081461010b578063c38d820214610129578063ff9f414d146101595761007d565b8063140056661461008257806351872959146100b357806395e5f424146100cf575b600080fd5b61009c6004803603810190610097919061156f565b610177565b6040516100aa929190611645565b60405180910390f35b6100cd60048036038101906100c891906117aa565b610223565b005b6100d761070d565b6040516100e49190611972565b60405180910390f35b6100f5610932565b6040516101029190611994565b60405180910390f35b61011361097d565b6040516101209190611af9565b60405180910390f35b610143600480360381019061013e9190611b1b565b610b60565b6040516101509190611994565b60405180910390f35b610161610ca2565b60405161016e9190611c7d565b60405180910390f35b600260205280600052604060002060009150905080600001805461019a90611cce565b80601f01602080910402602001604051908101604052809291908181526020018280546101c690611cce565b80156102135780601f106101e857610100808354040283529160200191610213565b820191906000526020600020905b8154815290600101906020018083116101f657829003601f168201915b5050505050908060010154905082565b60016000808282546102359190611d2e565b9250508190555061027c6040518060400160405280601681526020017f257320776176656420772f206d657373616765202573000000000000000000008152503383611047565b60008251036103a057600160405180608001604052803373ffffffffffffffffffffffffffffffffffffffff1681526020016040518060400160405280600881526020017f416e6f6e796d7573000000000000000000000000000000000000000000000000815250815260200183815260200142815250908060018154018082558091505060019003906000526020600020906004020160009091909190915060008201518160000160006101000a81548173ffffffffffffffffffffffffffffffffffffffff021916908373ffffffffffffffffffffffffffffffffffffffff16021790555060208201518160010190816103789190611f0e565b50604082015181600201908161038e9190611f0e565b50606082015181600301555050610482565b600160405180608001604052803373ffffffffffffffffffffffffffffffffffffffff16815260200184815260200183815260200142815250908060018154018082558091505060019003906000526020600020906004020160009091909190915060008201518160000160006101000a81548173ffffffffffffffffffffffffffffffffffffffff021916908373ffffffffffffffffffffffffffffffffffffffff160217905550602082015181600101908161045e9190611f0e565b5060408201518160020190816104749190611f0e565b506060820151816003015550505b6003339080600181540180825580915050600190039060005260206000200160009091909190916101000a81548173ffffffffffffffffffffffffffffffffffffffff021916908373ffffffffffffffffffffffffffffffffffffffff1602179055506001600260003373ffffffffffffffffffffffffffffffffffffffff1673ffffffffffffffffffffffffffffffffffffffff16815260200190815260200160002060010160008282546105389190611d2e565b925050819055506000600260003373ffffffffffffffffffffffffffffffffffffffff1673ffffffffffffffffffffffffffffffffffffffff168152602001908152602001600020600001805461058e90611cce565b90500361067a576000825103610628576040518060400160405280600981526020017f416e6f6e796d6f75730000000000000000000000000000000000000000000000815250600260003373ffffffffffffffffffffffffffffffffffffffff1673ffffffffffffffffffffffffffffffffffffffff16815260200190815260200160002060000190816106229190611f0e565b50610679565b81600260003373ffffffffffffffffffffffffffffffffffffffff1673ffffffffffffffffffffffffffffffffffffffff16815260200190815260200160002060000190816106779190611f0e565b505b5b6106b96040518060400160405280600d81526020017f2573206861732077617665642100000000000000000000000000000000000000815250336110e6565b3373ffffffffffffffffffffffffffffffffffffffff167f5f7e16dc676677766a70e9c5628aa6c54ddb8b6e5188e2ae1e1f17f1ffbea7164283604051610701929190611fe0565b60405180910390a25050565b60606000600380549050905060008167ffffffffffffffff8111156107355761073461167f565b5b60405190808252806020026020018201604052801561076e57816020015b61075b6114c2565b8152602001906001900390816107535790505b50905060005b828110156109295760006003828154811061079257610791612010565b5b9060005260206000200160009054906101000a900473ffffffffffffffffffffffffffffffffffffffff169050610806600383815481106107d6576107d5612010565b5b9060005260206000200160009054906101000a900473ffffffffffffffffffffffffffffffffffffffff16611182565b83838151811061081957610818612010565b5b602002602001015160200181905250600260008273ffffffffffffffffffffffffffffffffffffffff1673ffffffffffffffffffffffffffffffffffffffff168152602001908152602001600020600001805461087590611cce565b80601f01602080910402602001604051908101604052809291908181526020018280546108a190611cce565b80156108ee5780601f106108c3576101008083540402835291602001916108ee565b820191906000526020600020905b8154815290600101906020018083116108d157829003601f168201915b505050505083838151811061090657610905612010565b5b6020026020010151600001819052505080806109219061203f565b915050610774565b50809250505090565b60006109756040518060400160405280601781526020017f5765206861766520256420746f74616c20776176657321000000000000000000815250600054611370565b600054905090565b60606001805480602002602001604051908101604052809291908181526020016000905b82821015610b5757838290600052602060002090600402016040518060800160405290816000820160009054906101000a900473ffffffffffffffffffffffffffffffffffffffff1673ffffffffffffffffffffffffffffffffffffffff1673ffffffffffffffffffffffffffffffffffffffff168152602001600182018054610a2a90611cce565b80601f0160208091040260200160405190810160405280929190818152602001828054610a5690611cce565b8015610aa35780601f10610a7857610100808354040283529160200191610aa3565b820191906000526020600020905b815481529060010190602001808311610a8657829003601f168201915b50505050508152602001600282018054610abc90611cce565b80601f0160208091040260200160405190810160405280929190818152602001828054610ae890611cce565b8015610b355780601f10610b0a57610100808354040283529160200191610b35565b820191906000526020600020905b815481529060010190602001808311610b1857829003601f168201915b50505050508152602001600382015481525050815260200190600101906109a1565b50505050905090565b60008060038054905090506000835103610b7e576000915050610c9d565b6000805b82811015610c9657600060038281548110610ba057610b9f612010565b5b9060005260206000200160009054906101000a900473ffffffffffffffffffffffffffffffffffffffff1690508580519060200120600260008373ffffffffffffffffffffffffffffffffffffffff1673ffffffffffffffffffffffffffffffffffffffff168152602001908152602001600020600001604051610c24919061212a565b604051809103902003610c8257600260008273ffffffffffffffffffffffffffffffffffffffff1673ffffffffffffffffffffffffffffffffffffffff1681526020019081526020016000206001015483610c7f9190611d2e565b92505b508080610c8e9061203f565b915050610b82565b5080925050505b919050565b60606000600380549050905060008167ffffffffffffffff811115610cca57610cc961167f565b5b604051908082528060200260200182016040528015610d0357816020015b610cf06114dc565b815260200190600190039081610ce85790505b5090506000805b8381101561101957600060038281548110610d2857610d27612010565b5b9060005260206000200160009054906101000a900473ffffffffffffffffffffffffffffffffffffffff16905060006001905060005b84811015610e7057600260008473ffffffffffffffffffffffffffffffffffffffff1673ffffffffffffffffffffffffffffffffffffffff168152602001908152602001600020600001604051610db5919061212a565b6040518091039020868281518110610dd057610dcf612010565b5b60200260200101516000015180519060200120148015610e4f5750600260008473ffffffffffffffffffffffffffffffffffffffff1673ffffffffffffffffffffffffffffffffffffffff16815260200190815260200160002060010154868281518110610e4157610e40612010565b5b602002602001015160200151145b15610e5d5760009150610e70565b8080610e689061203f565b915050610d5e565b50801561100457600260008373ffffffffffffffffffffffffffffffffffffffff1673ffffffffffffffffffffffffffffffffffffffff1681526020019081526020016000206000018054610ec490611cce565b80601f0160208091040260200160405190810160405280929190818152602001828054610ef090611cce565b8015610f3d5780601f10610f1257610100808354040283529160200191610f3d565b820191906000526020600020905b815481529060010190602001808311610f2057829003601f168201915b5050505050858581518110610f5557610f54612010565b5b602002602001015160000181905250600260008373ffffffffffffffffffffffffffffffffffffffff1673ffffffffffffffffffffffffffffffffffffffff16815260200190815260200160002060010154858581518110610fba57610fb9612010565b5b60200260200101516020018181525050610fd382611182565b858581518110610fe657610fe5612010565b5b60200260200101516040018190525083806110009061203f565b9450505b505080806110119061203f565b915050610d0a565b5080825281935050505090565b60006a636f6e736f6c652e6c6f679050600080835160208501845afa505050565b6110e183838360405160240161105f93929190612150565b6040516020818303038152906040527fe0e9ad4f000000000000000000000000000000000000000000000000000000007bffffffffffffffffffffffffffffffffffffffffffffffffffffffff19166020820180517bffffffffffffffffffffffffffffffffffffffffffffffffffffffff838183161783525050505061140c565b505050565b61117e82826040516024016110fc929190612195565b6040516020818303038152906040527f319af333000000000000000000000000000000000000000000000000000000007bffffffffffffffffffffffffffffffffffffffffffffffffffffffff19166020820180517bffffffffffffffffffffffffffffffffffffffffffffffffffffffff838183161783525050505061140c565b5050565b606060008273ffffffffffffffffffffffffffffffffffffffff1660001b90506000602a67ffffffffffffffff8111156111bf576111be61167f565b5b6040519080825280601f01601f1916602001820160405280156111f15781602001600182028036833780820191505090505b50905060005b601481101561134657600081601361120f91906121c5565b600861121b91906121f9565b6002611227919061236e565b8460001c61123591906123e8565b60f81b9050600060108260f81c61124c9190612426565b60f81b905060008160f81c60106112639190612457565b8360f81c6112719190612494565b60f81b905061127f82611426565b8560028661128d91906121f9565b8151811061129e5761129d612010565b5b60200101907effffffffffffffffffffffffffffffffffffffffffffffffffffffffffffff1916908160001a9053506112d681611426565b8560016002876112e691906121f9565b6112f09190611d2e565b8151811061130157611300612010565b5b60200101907effffffffffffffffffffffffffffffffffffffffffffffffffffffffffffff1916908160001a905350505050808061133e9061203f565b9150506111f7565b5080604051602001611358919061255c565b60405160208183030381529060405292505050919050565b6114088282604051602401611386929190611645565b6040516020818303038152906040527fb60e72cc000000000000000000000000000000000000000000000000000000007bffffffffffffffffffffffffffffffffffffffffffffffffffffffff19166020820180517bffffffffffffffffffffffffffffffffffffffffffffffffffffffff838183161783525050505061140c565b5050565b6114238161141b6110266114ad565b63ffffffff16565b50565b6000600a60f81b7effffffffffffffffffffffffffffffffffffffffffffffffffffffffffffff1916827effffffffffffffffffffffffffffffffffffffffffffffffffffffffffffff191610156114925760308260f81c611488919061257e565b60f81b90506114a8565b60578260f81c6114a2919061257e565b60f81b90505b919050565b6114b8819050919050565b6114c06125b3565b565b604051806040016040528060608152602001606081525090565b60405180606001604052806060815260200160008152602001606081525090565b6000604051905090565b600080fd5b600080fd5b600073ffffffffffffffffffffffffffffffffffffffff82169050919050565b600061153c82611511565b9050919050565b61154c81611531565b811461155757600080fd5b50565b60008135905061156981611543565b92915050565b60006020828403121561158557611584611507565b5b60006115938482850161155a565b91505092915050565b600081519050919050565b600082825260208201905092915050565b60005b838110156115d65780820151818401526020810190506115bb565b60008484015250505050565b6000601f19601f8301169050919050565b60006115fe8261159c565b61160881856115a7565b93506116188185602086016115b8565b611621816115e2565b840191505092915050565b6000819050919050565b61163f8161162c565b82525050565b6000604082019050818103600083015261165f81856115f3565b905061166e6020830184611636565b9392505050565b600080fd5b600080fd5b7f4e487b7100000000000000000000000000000000000000000000000000000000600052604160045260246000fd5b6116b7826115e2565b810181811067ffffffffffffffff821117156116d6576116d561167f565b5b80604052505050565b60006116e96114fd565b90506116f582826116ae565b919050565b600067ffffffffffffffff8211156117155761171461167f565b5b61171e826115e2565b9050602081019050919050565b82818337600083830152505050565b600061174d611748846116fa565b6116df565b9050828152602081018484840111156117695761176861167a565b5b61177484828561172b565b509392505050565b600082601f83011261179157611790611675565b5b81356117a184826020860161173a565b91505092915050565b600080604083850312156117c1576117c0611507565b5b600083013567ffffffffffffffff8111156117df576117de61150c565b5b6117eb8582860161177c565b925050602083013567ffffffffffffffff81111561180c5761180b61150c565b5b6118188582860161177c565b9150509250929050565b600081519050919050565b600082825260208201905092915050565b6000819050602082019050919050565b600082825260208201905092915050565b600061186a8261159c565b611874818561184e565b93506118848185602086016115b8565b61188d816115e2565b840191505092915050565b600060408301600083015184820360008601526118b5828261185f565b915050602083015184820360208601526118cf828261185f565b9150508091505092915050565b60006118e88383611898565b905092915050565b6000602082019050919050565b600061190882611822565b611912818561182d565b9350836020820285016119248561183e565b8060005b85811015611960578484038952815161194185826118dc565b945061194c836118f0565b925060208a01995050600181019050611928565b50829750879550505050505092915050565b6000602082019050818103600083015261198c81846118fd565b905092915050565b60006020820190506119a96000830184611636565b92915050565b600081519050919050565b600082825260208201905092915050565b6000819050602082019050919050565b6119e481611531565b82525050565b6119f38161162c565b82525050565b6000608083016000830151611a1160008601826119db565b5060208301518482036020860152611a29828261185f565b91505060408301518482036040860152611a43828261185f565b9150506060830151611a5860608601826119ea565b508091505092915050565b6000611a6f83836119f9565b905092915050565b6000602082019050919050565b6000611a8f826119af565b611a9981856119ba565b935083602082028501611aab856119cb565b8060005b85811015611ae75784840389528151611ac88582611a63565b9450611ad383611a77565b925060208a01995050600181019050611aaf565b50829750879550505050505092915050565b60006020820190508181036000830152611b138184611a84565b905092915050565b600060208284031215611b3157611b30611507565b5b600082013567ffffffffffffffff811115611b4f57611b4e61150c565b5b611b5b8482850161177c565b91505092915050565b600081519050919050565b600082825260208201905092915050565b6000819050602082019050919050565b60006060830160008301518482036000860152611bad828261185f565b9150506020830151611bc260208601826119ea565b5060408301518482036040860152611bda828261185f565b9150508091505092915050565b6000611bf38383611b90565b905092915050565b6000602082019050919050565b6000611c1382611b64565b611c1d8185611b6f565b935083602082028501611c2f85611b80565b8060005b85811015611c6b5784840389528151611c4c8582611be7565b9450611c5783611bfb565b925060208a01995050600181019050611c33565b50829750879550505050505092915050565b60006020820190508181036000830152611c978184611c08565b905092915050565b7f4e487b7100000000000000000000000000000000000000000000000000000000600052602260045260246000fd5b60006002820490506001821680611ce657607f821691505b602082108103611cf957611cf8611c9f565b5b50919050565b7f4e487b7100000000000000000000000000000000000000000000000000000000600052601160045260246000fd5b6000611d398261162c565b9150611d448361162c565b9250828201905080821115611d5c57611d5b611cff565b5b92915050565b60008190508160005260206000209050919050565b60006020601f8301049050919050565b600082821b905092915050565b600060088302611dc47fffffffffffffffffffffffffffffffffffffffffffffffffffffffffffffffff82611d87565b611dce8683611d87565b95508019841693508086168417925050509392505050565b6000819050919050565b6000611e0b611e06611e018461162c565b611de6565b61162c565b9050919050565b6000819050919050565b611e2583611df0565b611e39611e3182611e12565b848454611d94565b825550505050565b600090565b611e4e611e41565b611e59818484611e1c565b505050565b5b81811015611e7d57611e72600082611e46565b600181019050611e5f565b5050565b601f821115611ec257611e9381611d62565b611e9c84611d77565b81016020851015611eab578190505b611ebf611eb785611d77565b830182611e5e565b50505b505050565b600082821c905092915050565b6000611ee560001984600802611ec7565b1980831691505092915050565b6000611efe8383611ed4565b9150826002028217905092915050565b611f178261159c565b67ffffffffffffffff811115611f3057611f2f61167f565b5b611f3a8254611cce565b611f45828285611e81565b600060209050601f831160018114611f785760008415611f66578287015190505b611f708582611ef2565b865550611fd8565b601f198416611f8686611d62565b60005b82811015611fae57848901518255600182019150602085019450602081019050611f89565b86831015611fcb5784890151611fc7601f891682611ed4565b8355505b6001600288020188555050505b505050505050565b6000604082019050611ff56000830185611636565b818103602083015261200781846115f3565b90509392505050565b7f4e487b7100000000000000000000000000000000000000000000000000000000600052603260045260246000fd5b600061204a8261162c565b91507fffffffffffffffffffffffffffffffffffffffffffffffffffffffffffffffff820361207c5761207b611cff565b5b600182019050919050565b600081905092915050565b60008190508160005260206000209050919050565b600081546120b481611cce565b6120be8186612087565b945060018216600081146120d957600181146120ee57612121565b60ff1983168652811515820286019350612121565b6120f785612092565b60005b83811015612119578154818901526001820191506020810190506120fa565b838801955050505b50505092915050565b600061213682846120a7565b915081905092915050565b61214a81611531565b82525050565b6000606082019050818103600083015261216a81866115f3565b90506121796020830185612141565b818103604083015261218b81846115f3565b9050949350505050565b600060408201905081810360008301526121af81856115f3565b90506121be6020830184612141565b9392505050565b60006121d08261162c565b91506121db8361162c565b92508282039050818111156121f3576121f2611cff565b5b92915050565b60006122048261162c565b915061220f8361162c565b925082820261221d8161162c565b9150828204841483151761223457612233611cff565b5b5092915050565b60008160011c9050919050565b6000808291508390505b60018511156122925780860481111561226e5761226d611cff565b5b600185161561227d5780820291505b808102905061228b8561223b565b9450612252565b94509492505050565b6000826122ab5760019050612367565b816122b95760009050612367565b81600181146122cf57600281146122d957612308565b6001915050612367565b60ff8411156122eb576122ea611cff565b5b8360020a91508482111561230257612301611cff565b5b50612367565b5060208310610133831016604e8410600b841016171561233d5782820a90508381111561233857612337611cff565b5b612367565b61234a8484846001612248565b9250905081840481111561236157612360611cff565b5b81810290505b9392505050565b60006123798261162c565b91506123848361162c565b92506123b17fffffffffffffffffffffffffffffffffffffffffffffffffffffffffffffffff848461229b565b905092915050565b7f4e487b7100000000000000000000000000000000000000000000000000000000600052601260045260246000fd5b60006123f38261162c565b91506123fe8361162c565b92508261240e5761240d6123b9565b5b828204905092915050565b600060ff82169050919050565b600061243182612419565b915061243c83612419565b92508261244c5761244b6123b9565b5b828204905092915050565b600061246282612419565b915061246d83612419565b925082820261247b81612419565b915080821461248d5761248c611cff565b5b5092915050565b600061249f82612419565b91506124aa83612419565b9250828203905060ff8111156124c3576124c2611cff565b5b92915050565b600081905092915050565b7f3078000000000000000000000000000000000000000000000000000000000000600082015250565b600061250a6002836124c9565b9150612515826124d4565b600282019050919050565b600081519050919050565b600061253682612520565b6125408185612087565b93506125508185602086016115b8565b80840191505092915050565b6000612567826124fd565b9150612573828461252b565b915081905092915050565b600061258982612419565b915061259483612419565b9250828201905060ff8111156125ad576125ac611cff565b5b92915050565b7f4e487b7100000000000000000000000000000000000000000000000000000000600052605160045260246000fdfea26469706673582212205e0b347af7dbfe1550d6f2f4b57330993906da23161020fb6d41d36a0f90245864736f6c6343000813003354686572652073746172747320746865206a6f75726e6579206f662061204c4547454e442120",
  "linkReferences": {},
  "deployedLinkReferences": {}
}