{
  "_format": "hh-sol-artifact-1",
  "contractName": "WavePortal",
  "sourceName": "contracts/WavePortal.sol",
  "abi": [
    {
      "inputs": [],
      "stateMutability": "payable",
      "type": "constructor"
    },
    {
      "anonymous": false,
      "inputs": [
        {
          "indexed": true,
          "internalType": "address",
          "name": "from",
          "type": "address"
        },
        {
          "indexed": false,
          "internalType": "uint256",
          "name": "timestamp",
          "type": "uint256"
        },
        {
          "indexed": false,
          "internalType": "string",
          "name": "name",
          "type": "string"
        },
        {
          "indexed": false,
          "internalType": "string",
          "name": "message",
          "type": "string"
        }
      ],
      "name": "NewWave",
      "type": "event"
    },
    {
      "inputs": [],
      "name": "getAllWaves",
      "outputs": [
        {
          "components": [
            {
              "internalType": "address",
              "name": "waver",
              "type": "address"
            },
            {
              "internalType": "string",
              "name": "name",
              "type": "string"
            },
            {
              "internalType": "string",
              "name": "message",
              "type": "string"
            },
            {
              "internalType": "uint256",
              "name": "timestamp",
              "type": "uint256"
            }
          ],
          "internalType": "struct WavePortal.Wave[]",
          "name": "",
          "type": "tuple[]"
        }
      ],
      "stateMutability": "view",
      "type": "function"
    },
    {
      "inputs": [],
      "name": "getTotalWaves",
      "outputs": [
        {
          "internalType": "uint256",
          "name": "",
          "type": "uint256"
        }
      ],
      "stateMutability": "view",
      "type": "function"
    },
    {
      "inputs": [],
      "name": "getWaverLogs",
      "outputs": [
        {
          "components": [
            {
              "internalType": "string",
              "name": "name",
              "type": "string"
            },
            {
              "internalType": "string",
              "name": "addressString",
              "type": "string"
            }
          ],
          "internalType": "struct WavePortal.WaveAddress[]",
          "name": "",
          "type": "tuple[]"
        }
      ],
      "stateMutability": "view",
      "type": "function"
    },
    {
      "inputs": [],
      "name": "getWaversData",
      "outputs": [
        {
          "components": [
            {
              "internalType": "string",
              "name": "name",
              "type": "string"
            },
            {
              "internalType": "uint256",
              "name": "waveCount",
              "type": "uint256"
            },
            {
              "internalType": "string",
              "name": "addressString",
              "type": "string"
            }
          ],
          "internalType": "struct WavePortal.ReturnWaveData[]",
          "name": "",
          "type": "tuple[]"
        }
      ],
      "stateMutability": "view",
      "type": "function"
    },
    {
      "inputs": [
        {
          "internalType": "string",
          "name": "_name",
          "type": "string"
        }
      ],
      "name": "getWavesFor",
      "outputs": [
        {
          "internalType": "uint256",
          "name": "",
          "type": "uint256"
        }
      ],
      "stateMutability": "view",
      "type": "function"
    },
    {
      "inputs": [
        {
          "internalType": "address",
          "name": "",
          "type": "address"
        }
      ],
      "name": "lastWavedAt",
      "outputs": [
        {
          "internalType": "uint256",
          "name": "",
          "type": "uint256"
        }
      ],
      "stateMutability": "view",
      "type": "function"
    },
    {
      "inputs": [
        {
          "internalType": "string",
          "name": "_name",
          "type": "string"
        },
        {
          "internalType": "string",
          "name": "_message",
          "type": "string"
        }
      ],
      "name": "wave",
      "outputs": [],
      "stateMutability": "nonpayable",
      "type": "function"
    },
    {
      "inputs": [
        {
          "internalType": "address",
          "name": "",
          "type": "address"
        }
      ],
      "name": "waveData",
      "outputs": [
        {
          "internalType": "string",
          "name": "name",
          "type": "string"
        },
        {
          "internalType": "uint256",
          "name": "waveCount",
          "type": "uint256"
        }
      ],
      "stateMutability": "view",
      "type": "function"
    }
  ],
  "bytecode": "0x60806040526200002e60405180606001604052806026815260200162003066602691396200006760201b60201c565b6200003f336200010a60201b60201c565b606444426200004f919062000250565b6200005b9190620002ba565b60018190555062000441565b62000107816040516024016200007e91906200038c565b6040516020818303038152906040527f41304fac000000000000000000000000000000000000000000000000000000007bffffffffffffffffffffffffffffffffffffffffffffffffffffffff19166020820180517bffffffffffffffffffffffffffffffffffffffffffffffffffffffff8381831617835250505050620001ad60201b60201c565b50565b620001aa81604051602401620001219190620003f5565b6040516020818303038152906040527f2c2ecbc2000000000000000000000000000000000000000000000000000000007bffffffffffffffffffffffffffffffffffffffffffffffffffffffff19166020820180517bffffffffffffffffffffffffffffffffffffffffffffffffffffffff8381831617835250505050620001ad60201b60201c565b50565b620001d381620001ce620001d660201b6200135d17620001f760201b60201c565b60201c565b50565b60006a636f6e736f6c652e6c6f679050600080835160208501845afa505050565b6200020b60201b620017ef17819050919050565b6200021562000412565b565b6000819050919050565b7f4e487b7100000000000000000000000000000000000000000000000000000000600052601160045260246000fd5b60006200025d8262000217565b91506200026a8362000217565b925082820190508082111562000285576200028462000221565b5b92915050565b7f4e487b7100000000000000000000000000000000000000000000000000000000600052601260045260246000fd5b6000620002c78262000217565b9150620002d48362000217565b925082620002e757620002e66200028b565b5b828206905092915050565b600081519050919050565b600082825260208201905092915050565b60005b838110156200032e57808201518184015260208101905062000311565b60008484015250505050565b6000601f19601f8301169050919050565b60006200035882620002f2565b620003648185620002fd565b9350620003768185602086016200030e565b62000381816200033a565b840191505092915050565b60006020820190508181036000830152620003a881846200034b565b905092915050565b600073ffffffffffffffffffffffffffffffffffffffff82169050919050565b6000620003dd82620003b0565b9050919050565b620003ef81620003d0565b82525050565b60006020820190506200040c6000830184620003e4565b92915050565b7f4e487b7100000000000000000000000000000000000000000000000000000000600052605160045260246000fd5b612c1580620004516000396000f3fe608060405234801561001057600080fd5b50600436106100885760003560e01c8063a42a46631161005b578063a42a466314610116578063bd43a90814610146578063c38d820214610164578063ff9f414d1461019457610088565b8063140056661461008d57806351872959146100be57806395e5f424146100da5780639a2cdc08146100f8575b600080fd5b6100a760048036038101906100a291906118a6565b6101b2565b6040516100b592919061197c565b60405180910390f35b6100d860048036038101906100d39190611ae1565b61025e565b005b6100e2610a2c565b6040516100ef9190611ca9565b60405180910390f35b610100610c51565b60405161010d9190611ccb565b60405180910390f35b610130600480360381019061012b91906118a6565b610c9c565b60405161013d9190611ccb565b60405180910390f35b61014e610cb4565b60405161015b9190611e30565b60405180910390f35b61017e60048036038101906101799190611e52565b610e97565b60405161018b9190611ccb565b60405180910390f35b61019c610fd9565b6040516101a99190611fb4565b60405180910390f35b60036020528060005260406000206000915090508060000180546101d590612005565b80601f016020809104026020016040519081016040528092919081815260200182805461020190612005565b801561024e5780601f106102235761010080835404028352916020019161024e565b820191906000526020600020905b81548152906001019060200180831161023157829003601f168201915b5050505050908060010154905082565b42601e600560003373ffffffffffffffffffffffffffffffffffffffff1673ffffffffffffffffffffffffffffffffffffffff168152602001908152602001600020546102ab9190612065565b106102eb576040517f08c379a00000000000000000000000000000000000000000000000000000000081526004016102e29061210b565b60405180910390fd5b42600560003373ffffffffffffffffffffffffffffffffffffffff1673ffffffffffffffffffffffffffffffffffffffff1681526020019081526020016000208190555060016000808282546103419190612065565b925050819055506103886040518060400160405280601681526020017f257320776176656420772f206d65737361676520257300000000000000000000815250338361137e565b60008251036104ac57600260405180608001604052803373ffffffffffffffffffffffffffffffffffffffff1681526020016040518060400160405280600881526020017f416e6f6e796d7573000000000000000000000000000000000000000000000000815250815260200183815260200142815250908060018154018082558091505060019003906000526020600020906004020160009091909190915060008201518160000160006101000a81548173ffffffffffffffffffffffffffffffffffffffff021916908373ffffffffffffffffffffffffffffffffffffffff160217905550602082015181600101908161048491906122d7565b50604082015181600201908161049a91906122d7565b5060608201518160030155505061058e565b600260405180608001604052803373ffffffffffffffffffffffffffffffffffffffff16815260200184815260200183815260200142815250908060018154018082558091505060019003906000526020600020906004020160009091909190915060008201518160000160006101000a81548173ffffffffffffffffffffffffffffffffffffffff021916908373ffffffffffffffffffffffffffffffffffffffff160217905550602082015181600101908161056a91906122d7565b50604082015181600201908161058091906122d7565b506060820151816003015550505b6004339080600181540180825580915050600190039060005260206000200160009091909190916101000a81548173ffffffffffffffffffffffffffffffffffffffff021916908373ffffffffffffffffffffffffffffffffffffffff1602179055506001600360003373ffffffffffffffffffffffffffffffffffffffff1673ffffffffffffffffffffffffffffffffffffffff16815260200190815260200160002060010160008282546106449190612065565b925050819055506000600360003373ffffffffffffffffffffffffffffffffffffffff1673ffffffffffffffffffffffffffffffffffffffff168152602001908152602001600020600001805461069a90612005565b905003610786576000825103610734576040518060400160405280600981526020017f416e6f6e796d6f75730000000000000000000000000000000000000000000000815250600360003373ffffffffffffffffffffffffffffffffffffffff1673ffffffffffffffffffffffffffffffffffffffff168152602001908152602001600020600001908161072e91906122d7565b50610785565b81600360003373ffffffffffffffffffffffffffffffffffffffff1673ffffffffffffffffffffffffffffffffffffffff168152602001908152602001600020600001908161078391906122d7565b505b5b6107c56040518060400160405280600d81526020017f25732068617320776176656421000000000000000000000000000000000000008152503361141d565b606460015442446107d69190612065565b6107e09190612065565b6107ea91906123d8565b6001819055506108316040518060400160405280601681526020017f52616e646f6d20232067656e6572617465643a202564000000000000000000008152506001546114b9565b6032600154116109775761087a6040518060400160405280600781526020017f257320776f6e21000000000000000000000000000000000000000000000000008152503361141d565b6000655af3107a40009050478111156108c8576040517f08c379a00000000000000000000000000000000000000000000000000000000081526004016108bf9061247b565b60405180910390fd5b60003373ffffffffffffffffffffffffffffffffffffffff16826040516108ee906124cc565b60006040518083038185875af1925050503d806000811461092b576040519150601f19603f3d011682016040523d82523d6000602084013e610930565b606091505b5050905080610974576040517f08c379a000000000000000000000000000000000000000000000000000000000815260040161096b90612553565b60405180910390fd5b50505b60008251036109d5573373ffffffffffffffffffffffffffffffffffffffff167f0646f10b0148fe8db9a43af10b6956b53e1478c47afc7132c17e243449dfd33942836040516109c89291906125bf565b60405180910390a2610a28565b3373ffffffffffffffffffffffffffffffffffffffff167f0646f10b0148fe8db9a43af10b6956b53e1478c47afc7132c17e243449dfd339428484604051610a1f93929190612602565b60405180910390a25b5050565b60606000600480549050905060008167ffffffffffffffff811115610a5457610a536119b6565b5b604051908082528060200260200182016040528015610a8d57816020015b610a7a6117f9565b815260200190600190039081610a725790505b50905060005b82811015610c4857600060048281548110610ab157610ab0612647565b5b9060005260206000200160009054906101000a900473ffffffffffffffffffffffffffffffffffffffff169050610b2560048381548110610af557610af4612647565b5b9060005260206000200160009054906101000a900473ffffffffffffffffffffffffffffffffffffffff16611555565b838381518110610b3857610b37612647565b5b602002602001015160200181905250600360008273ffffffffffffffffffffffffffffffffffffffff1673ffffffffffffffffffffffffffffffffffffffff1681526020019081526020016000206000018054610b9490612005565b80601f0160208091040260200160405190810160405280929190818152602001828054610bc090612005565b8015610c0d5780601f10610be257610100808354040283529160200191610c0d565b820191906000526020600020905b815481529060010190602001808311610bf057829003601f168201915b5050505050838381518110610c2557610c24612647565b5b602002602001015160000181905250508080610c4090612676565b915050610a93565b50809250505090565b6000610c946040518060400160405280601781526020017f5765206861766520256420746f74616c207761766573210000000000000000008152506000546114b9565b600054905090565b60056020528060005260406000206000915090505481565b60606002805480602002602001604051908101604052809291908181526020016000905b82821015610e8e57838290600052602060002090600402016040518060800160405290816000820160009054906101000a900473ffffffffffffffffffffffffffffffffffffffff1673ffffffffffffffffffffffffffffffffffffffff1673ffffffffffffffffffffffffffffffffffffffff168152602001600182018054610d6190612005565b80601f0160208091040260200160405190810160405280929190818152602001828054610d8d90612005565b8015610dda5780601f10610daf57610100808354040283529160200191610dda565b820191906000526020600020905b815481529060010190602001808311610dbd57829003601f168201915b50505050508152602001600282018054610df390612005565b80601f0160208091040260200160405190810160405280929190818152602001828054610e1f90612005565b8015610e6c5780601f10610e4157610100808354040283529160200191610e6c565b820191906000526020600020905b815481529060010190602001808311610e4f57829003601f168201915b5050505050815260200160038201548152505081526020019060010190610cd8565b50505050905090565b60008060048054905090506000835103610eb5576000915050610fd4565b6000805b82811015610fcd57600060048281548110610ed757610ed6612647565b5b9060005260206000200160009054906101000a900473ffffffffffffffffffffffffffffffffffffffff1690508580519060200120600360008373ffffffffffffffffffffffffffffffffffffffff1673ffffffffffffffffffffffffffffffffffffffff168152602001908152602001600020600001604051610f5b9190612756565b604051809103902003610fb957600360008273ffffffffffffffffffffffffffffffffffffffff1673ffffffffffffffffffffffffffffffffffffffff1681526020019081526020016000206001015483610fb69190612065565b92505b508080610fc590612676565b915050610eb9565b5080925050505b919050565b60606000600480549050905060008167ffffffffffffffff811115611001576110006119b6565b5b60405190808252806020026020018201604052801561103a57816020015b611027611813565b81526020019060019003908161101f5790505b5090506000805b838110156113505760006004828154811061105f5761105e612647565b5b9060005260206000200160009054906101000a900473ffffffffffffffffffffffffffffffffffffffff16905060006001905060005b848110156111a757600360008473ffffffffffffffffffffffffffffffffffffffff1673ffffffffffffffffffffffffffffffffffffffff1681526020019081526020016000206000016040516110ec9190612756565b604051809103902086828151811061110757611106612647565b5b602002602001015160000151805190602001201480156111865750600360008473ffffffffffffffffffffffffffffffffffffffff1673ffffffffffffffffffffffffffffffffffffffff1681526020019081526020016000206001015486828151811061117857611177612647565b5b602002602001015160200151145b1561119457600091506111a7565b808061119f90612676565b915050611095565b50801561133b57600360008373ffffffffffffffffffffffffffffffffffffffff1673ffffffffffffffffffffffffffffffffffffffff16815260200190815260200160002060000180546111fb90612005565b80601f016020809104026020016040519081016040528092919081815260200182805461122790612005565b80156112745780601f1061124957610100808354040283529160200191611274565b820191906000526020600020905b81548152906001019060200180831161125757829003601f168201915b505050505085858151811061128c5761128b612647565b5b602002602001015160000181905250600360008373ffffffffffffffffffffffffffffffffffffffff1673ffffffffffffffffffffffffffffffffffffffff168152602001908152602001600020600101548585815181106112f1576112f0612647565b5b6020026020010151602001818152505061130a82611555565b85858151811061131d5761131c612647565b5b602002602001015160400181905250838061133790612676565b9450505b5050808061134890612676565b915050611041565b5080825281935050505090565b60006a636f6e736f6c652e6c6f679050600080835160208501845afa505050565b6114188383836040516024016113969392919061277c565b6040516020818303038152906040527fe0e9ad4f000000000000000000000000000000000000000000000000000000007bffffffffffffffffffffffffffffffffffffffffffffffffffffffff19166020820180517bffffffffffffffffffffffffffffffffffffffffffffffffffffffff8381831617835250505050611743565b505050565b6114b582826040516024016114339291906127c1565b6040516020818303038152906040527f319af333000000000000000000000000000000000000000000000000000000007bffffffffffffffffffffffffffffffffffffffffffffffffffffffff19166020820180517bffffffffffffffffffffffffffffffffffffffffffffffffffffffff8381831617835250505050611743565b5050565b61155182826040516024016114cf92919061197c565b6040516020818303038152906040527fb60e72cc000000000000000000000000000000000000000000000000000000007bffffffffffffffffffffffffffffffffffffffffffffffffffffffff19166020820180517bffffffffffffffffffffffffffffffffffffffffffffffffffffffff8381831617835250505050611743565b5050565b606060008273ffffffffffffffffffffffffffffffffffffffff1660001b90506000602a67ffffffffffffffff811115611592576115916119b6565b5b6040519080825280601f01601f1916602001820160405280156115c45781602001600182028036833780820191505090505b50905060005b60148110156117195760008160136115e291906127f1565b60086115ee9190612825565b60026115fa919061299a565b8460001c61160891906129e5565b60f81b9050600060108260f81c61161f9190612a23565b60f81b905060008160f81c60106116369190612a54565b8360f81c6116449190612a91565b60f81b90506116528261175d565b856002866116609190612825565b8151811061167157611670612647565b5b60200101907effffffffffffffffffffffffffffffffffffffffffffffffffffffffffffff1916908160001a9053506116a98161175d565b8560016002876116b99190612825565b6116c39190612065565b815181106116d4576116d3612647565b5b60200101907effffffffffffffffffffffffffffffffffffffffffffffffffffffffffffff1916908160001a905350505050808061171190612676565b9150506115ca565b508060405160200161172b9190612b59565b60405160208183030381529060405292505050919050565b61175a8161175261135d6117e4565b63ffffffff16565b50565b6000600a60f81b7effffffffffffffffffffffffffffffffffffffffffffffffffffffffffffff1916827effffffffffffffffffffffffffffffffffffffffffffffffffffffffffffff191610156117c95760308260f81c6117bf9190612b7b565b60f81b90506117df565b60578260f81c6117d99190612b7b565b60f81b90505b919050565b6117ef819050919050565b6117f7612bb0565b565b604051806040016040528060608152602001606081525090565b60405180606001604052806060815260200160008152602001606081525090565b6000604051905090565b600080fd5b600080fd5b600073ffffffffffffffffffffffffffffffffffffffff82169050919050565b600061187382611848565b9050919050565b61188381611868565b811461188e57600080fd5b50565b6000813590506118a08161187a565b92915050565b6000602082840312156118bc576118bb61183e565b5b60006118ca84828501611891565b91505092915050565b600081519050919050565b600082825260208201905092915050565b60005b8381101561190d5780820151818401526020810190506118f2565b60008484015250505050565b6000601f19601f8301169050919050565b6000611935826118d3565b61193f81856118de565b935061194f8185602086016118ef565b61195881611919565b840191505092915050565b6000819050919050565b61197681611963565b82525050565b60006040820190508181036000830152611996818561192a565b90506119a5602083018461196d565b9392505050565b600080fd5b600080fd5b7f4e487b7100000000000000000000000000000000000000000000000000000000600052604160045260246000fd5b6119ee82611919565b810181811067ffffffffffffffff82111715611a0d57611a0c6119b6565b5b80604052505050565b6000611a20611834565b9050611a2c82826119e5565b919050565b600067ffffffffffffffff821115611a4c57611a4b6119b6565b5b611a5582611919565b9050602081019050919050565b82818337600083830152505050565b6000611a84611a7f84611a31565b611a16565b905082815260208101848484011115611aa057611a9f6119b1565b5b611aab848285611a62565b509392505050565b600082601f830112611ac857611ac76119ac565b5b8135611ad8848260208601611a71565b91505092915050565b60008060408385031215611af857611af761183e565b5b600083013567ffffffffffffffff811115611b1657611b15611843565b5b611b2285828601611ab3565b925050602083013567ffffffffffffffff811115611b4357611b42611843565b5b611b4f85828601611ab3565b9150509250929050565b600081519050919050565b600082825260208201905092915050565b6000819050602082019050919050565b600082825260208201905092915050565b6000611ba1826118d3565b611bab8185611b85565b9350611bbb8185602086016118ef565b611bc481611919565b840191505092915050565b60006040830160008301518482036000860152611bec8282611b96565b91505060208301518482036020860152611c068282611b96565b9150508091505092915050565b6000611c1f8383611bcf565b905092915050565b6000602082019050919050565b6000611c3f82611b59565b611c498185611b64565b935083602082028501611c5b85611b75565b8060005b85811015611c975784840389528151611c788582611c13565b9450611c8383611c27565b925060208a01995050600181019050611c5f565b50829750879550505050505092915050565b60006020820190508181036000830152611cc38184611c34565b905092915050565b6000602082019050611ce0600083018461196d565b92915050565b600081519050919050565b600082825260208201905092915050565b6000819050602082019050919050565b611d1b81611868565b82525050565b611d2a81611963565b82525050565b6000608083016000830151611d486000860182611d12565b5060208301518482036020860152611d608282611b96565b91505060408301518482036040860152611d7a8282611b96565b9150506060830151611d8f6060860182611d21565b508091505092915050565b6000611da68383611d30565b905092915050565b6000602082019050919050565b6000611dc682611ce6565b611dd08185611cf1565b935083602082028501611de285611d02565b8060005b85811015611e1e5784840389528151611dff8582611d9a565b9450611e0a83611dae565b925060208a01995050600181019050611de6565b50829750879550505050505092915050565b60006020820190508181036000830152611e4a8184611dbb565b905092915050565b600060208284031215611e6857611e6761183e565b5b600082013567ffffffffffffffff811115611e8657611e85611843565b5b611e9284828501611ab3565b91505092915050565b600081519050919050565b600082825260208201905092915050565b6000819050602082019050919050565b60006060830160008301518482036000860152611ee48282611b96565b9150506020830151611ef96020860182611d21565b5060408301518482036040860152611f118282611b96565b9150508091505092915050565b6000611f2a8383611ec7565b905092915050565b6000602082019050919050565b6000611f4a82611e9b565b611f548185611ea6565b935083602082028501611f6685611eb7565b8060005b85811015611fa25784840389528151611f838582611f1e565b9450611f8e83611f32565b925060208a01995050600181019050611f6a565b50829750879550505050505092915050565b60006020820190508181036000830152611fce8184611f3f565b905092915050565b7f4e487b7100000000000000000000000000000000000000000000000000000000600052602260045260246000fd5b6000600282049050600182168061201d57607f821691505b6020821081036120305761202f611fd6565b5b50919050565b7f4e487b7100000000000000000000000000000000000000000000000000000000600052601160045260246000fd5b600061207082611963565b915061207b83611963565b925082820190508082111561209357612092612036565b5b92915050565b7f4d7573742077616974203330207365636f6e6473206265666f7265207761766960008201527f6e6720616761696e2e0000000000000000000000000000000000000000000000602082015250565b60006120f56029836118de565b915061210082612099565b604082019050919050565b60006020820190508181036000830152612124816120e8565b9050919050565b60008190508160005260206000209050919050565b60006020601f8301049050919050565b600082821b905092915050565b60006008830261218d7fffffffffffffffffffffffffffffffffffffffffffffffffffffffffffffffff82612150565b6121978683612150565b95508019841693508086168417925050509392505050565b6000819050919050565b60006121d46121cf6121ca84611963565b6121af565b611963565b9050919050565b6000819050919050565b6121ee836121b9565b6122026121fa826121db565b84845461215d565b825550505050565b600090565b61221761220a565b6122228184846121e5565b505050565b5b818110156122465761223b60008261220f565b600181019050612228565b5050565b601f82111561228b5761225c8161212b565b61226584612140565b81016020851015612274578190505b61228861228085612140565b830182612227565b50505b505050565b600082821c905092915050565b60006122ae60001984600802612290565b1980831691505092915050565b60006122c7838361229d565b9150826002028217905092915050565b6122e0826118d3565b67ffffffffffffffff8111156122f9576122f86119b6565b5b6123038254612005565b61230e82828561224a565b600060209050601f831160018114612341576000841561232f578287015190505b61233985826122bb565b8655506123a1565b601f19841661234f8661212b565b60005b8281101561237757848901518255600182019150602085019450602081019050612352565b868310156123945784890151612390601f89168261229d565b8355505b6001600288020188555050505b505050505050565b7f4e487b7100000000000000000000000000000000000000000000000000000000600052601260045260246000fd5b60006123e382611963565b91506123ee83611963565b9250826123fe576123fd6123a9565b5b828206905092915050565b7f547279696e6720746f207769746864726177206d6f7265206d6f6e657920746860008201527f616e2074686520636f6e7472616374206861732e000000000000000000000000602082015250565b60006124656034836118de565b915061247082612409565b604082019050919050565b6000602082019050818103600083015261249481612458565b9050919050565b600081905092915050565b50565b60006124b660008361249b565b91506124c1826124a6565b600082019050919050565b60006124d7826124a9565b9150819050919050565b7f4661696c656420746f207769746864726177206d6f6e65792066726f6d20636f60008201527f6e74726163742e00000000000000000000000000000000000000000000000000602082015250565b600061253d6027836118de565b9150612548826124e1565b604082019050919050565b6000602082019050818103600083015261256c81612530565b9050919050565b7f416e6f6e796d7573000000000000000000000000000000000000000000000000600082015250565b60006125a96008836118de565b91506125b482612573565b602082019050919050565b60006060820190506125d4600083018561196d565b81810360208301526125e58161259c565b905081810360408301526125f9818461192a565b90509392505050565b6000606082019050612617600083018661196d565b8181036020830152612629818561192a565b9050818103604083015261263d818461192a565b9050949350505050565b7f4e487b7100000000000000000000000000000000000000000000000000000000600052603260045260246000fd5b600061268182611963565b91507fffffffffffffffffffffffffffffffffffffffffffffffffffffffffffffffff82036126b3576126b2612036565b5b600182019050919050565b60008190508160005260206000209050919050565b600081546126e081612005565b6126ea818661249b565b94506001821660008114612705576001811461271a5761274d565b60ff198316865281151582028601935061274d565b612723856126be565b60005b8381101561274557815481890152600182019150602081019050612726565b838801955050505b50505092915050565b600061276282846126d3565b915081905092915050565b61277681611868565b82525050565b60006060820190508181036000830152612796818661192a565b90506127a5602083018561276d565b81810360408301526127b7818461192a565b9050949350505050565b600060408201905081810360008301526127db818561192a565b90506127ea602083018461276d565b9392505050565b60006127fc82611963565b915061280783611963565b925082820390508181111561281f5761281e612036565b5b92915050565b600061283082611963565b915061283b83611963565b925082820261284981611963565b915082820484148315176128605761285f612036565b5b5092915050565b60008160011c9050919050565b6000808291508390505b60018511156128be5780860481111561289a57612899612036565b5b60018516156128a95780820291505b80810290506128b785612867565b945061287e565b94509492505050565b6000826128d75760019050612993565b816128e55760009050612993565b81600181146128fb576002811461290557612934565b6001915050612993565b60ff84111561291757612916612036565b5b8360020a91508482111561292e5761292d612036565b5b50612993565b5060208310610133831016604e8410600b84101617156129695782820a90508381111561296457612963612036565b5b612993565b6129768484846001612874565b9250905081840481111561298d5761298c612036565b5b81810290505b9392505050565b60006129a582611963565b91506129b083611963565b92506129dd7fffffffffffffffffffffffffffffffffffffffffffffffffffffffffffffffff84846128c7565b905092915050565b60006129f082611963565b91506129fb83611963565b925082612a0b57612a0a6123a9565b5b828204905092915050565b600060ff82169050919050565b6000612a2e82612a16565b9150612a3983612a16565b925082612a4957612a486123a9565b5b828204905092915050565b6000612a5f82612a16565b9150612a6a83612a16565b9250828202612a7881612a16565b9150808214612a8a57612a89612036565b5b5092915050565b6000612a9c82612a16565b9150612aa783612a16565b9250828203905060ff811115612ac057612abf612036565b5b92915050565b600081905092915050565b7f3078000000000000000000000000000000000000000000000000000000000000600082015250565b6000612b07600283612ac6565b9150612b1282612ad1565b600282019050919050565b600081519050919050565b6000612b3382612b1d565b612b3d818561249b565b9350612b4d8185602086016118ef565b80840191505092915050565b6000612b6482612afa565b9150612b708284612b28565b915081905092915050565b6000612b8682612a16565b9150612b9183612a16565b9250828201905060ff811115612baa57612ba9612036565b5b92915050565b7f4e487b7100000000000000000000000000000000000000000000000000000000600052605160045260246000fdfea2646970667358221220260bf1793502d3097ad0718fd56e178b72f5207082dd6d0b2b40a3a64751f5d564736f6c6343000813003354686572652073746172747320746865206a6f75726e6579206f662061204c4547454e442120",
  "linkReferences": {},
  "deployedLinkReferences": {}
}