{
  "_format": "hh-sol-artifact-1",
  "contractName": "WavePortal",
  "sourceName": "contracts/WavePortal.sol",
  "abi": [
    {
      "inputs": [],
      "stateMutability": "payable",
      "type": "constructor"
    },
    {
      "anonymous": false,
      "inputs": [
        {
          "indexed": true,
          "internalType": "address",
          "name": "from",
          "type": "address"
        },
        {
          "indexed": false,
          "internalType": "uint256",
          "name": "timestamp",
          "type": "uint256"
        },
        {
          "indexed": false,
          "internalType": "string",
          "name": "message",
          "type": "string"
        }
      ],
      "name": "NewWave",
      "type": "event"
    },
    {
      "inputs": [],
      "name": "getAllWaves",
      "outputs": [
        {
          "components": [
            {
              "internalType": "address",
              "name": "waver",
              "type": "address"
            },
            {
              "internalType": "string",
              "name": "name",
              "type": "string"
            },
            {
              "internalType": "string",
              "name": "message",
              "type": "string"
            },
            {
              "internalType": "uint256",
              "name": "timestamp",
              "type": "uint256"
            }
          ],
          "internalType": "struct WavePortal.Wave[]",
          "name": "",
          "type": "tuple[]"
        }
      ],
      "stateMutability": "view",
      "type": "function"
    },
    {
      "inputs": [],
      "name": "getTotalWaves",
      "outputs": [
        {
          "internalType": "uint256",
          "name": "",
          "type": "uint256"
        }
      ],
      "stateMutability": "view",
      "type": "function"
    },
    {
      "inputs": [],
      "name": "getWaverLogs",
      "outputs": [
        {
          "components": [
            {
              "internalType": "string",
              "name": "name",
              "type": "string"
            },
            {
              "internalType": "string",
              "name": "addressString",
              "type": "string"
            }
          ],
          "internalType": "struct WavePortal.WaveAddress[]",
          "name": "",
          "type": "tuple[]"
        }
      ],
      "stateMutability": "view",
      "type": "function"
    },
    {
      "inputs": [],
      "name": "getWaversData",
      "outputs": [
        {
          "components": [
            {
              "internalType": "string",
              "name": "name",
              "type": "string"
            },
            {
              "internalType": "uint256",
              "name": "waveCount",
              "type": "uint256"
            },
            {
              "internalType": "string",
              "name": "addressString",
              "type": "string"
            }
          ],
          "internalType": "struct WavePortal.ReturnWaveData[]",
          "name": "",
          "type": "tuple[]"
        }
      ],
      "stateMutability": "view",
      "type": "function"
    },
    {
      "inputs": [
        {
          "internalType": "string",
          "name": "_name",
          "type": "string"
        }
      ],
      "name": "getWavesFor",
      "outputs": [
        {
          "internalType": "uint256",
          "name": "",
          "type": "uint256"
        }
      ],
      "stateMutability": "view",
      "type": "function"
    },
    {
      "inputs": [
        {
          "internalType": "string",
          "name": "_name",
          "type": "string"
        },
        {
          "internalType": "string",
          "name": "_message",
          "type": "string"
        }
      ],
      "name": "wave",
      "outputs": [],
      "stateMutability": "nonpayable",
      "type": "function"
    },
    {
      "inputs": [
        {
          "internalType": "address",
          "name": "",
          "type": "address"
        }
      ],
      "name": "waveData",
      "outputs": [
        {
          "internalType": "string",
          "name": "name",
          "type": "string"
        },
        {
          "internalType": "uint256",
          "name": "waveCount",
          "type": "uint256"
        }
      ],
      "stateMutability": "view",
      "type": "function"
    }
  ],
  "bytecode": "0x60806040526200002e60405180606001604052806026815260200162002bc7602691396200004560201b60201c565b6200003f33620000e860201b60201c565b62000344565b620000e5816040516024016200005c91906200028f565b6040516020818303038152906040527f41304fac000000000000000000000000000000000000000000000000000000007bffffffffffffffffffffffffffffffffffffffffffffffffffffffff19166020820180517bffffffffffffffffffffffffffffffffffffffffffffffffffffffff83818316178352505050506200018b60201b60201c565b50565b6200018881604051602401620000ff9190620002f8565b6040516020818303038152906040527f2c2ecbc2000000000000000000000000000000000000000000000000000000007bffffffffffffffffffffffffffffffffffffffffffffffffffffffff19166020820180517bffffffffffffffffffffffffffffffffffffffffffffffffffffffff83818316178352505050506200018b60201b60201c565b50565b620001b181620001ac620001b460201b6200112217620001d560201b60201c565b60201c565b50565b60006a636f6e736f6c652e6c6f679050600080835160208501845afa505050565b620001e960201b620015b417819050919050565b620001f362000315565b565b600081519050919050565b600082825260208201905092915050565b60005b838110156200023157808201518184015260208101905062000214565b60008484015250505050565b6000601f19601f8301169050919050565b60006200025b82620001f5565b62000267818562000200565b93506200027981856020860162000211565b62000284816200023d565b840191505092915050565b60006020820190508181036000830152620002ab81846200024e565b905092915050565b600073ffffffffffffffffffffffffffffffffffffffff82169050919050565b6000620002e082620002b3565b9050919050565b620002f281620002d3565b82525050565b60006020820190506200030f6000830184620002e7565b92915050565b7f4e487b7100000000000000000000000000000000000000000000000000000000600052605160045260246000fd5b61287380620003546000396000f3fe608060405234801561001057600080fd5b506004361061007d5760003560e01c80639a2cdc081161005b5780639a2cdc08146100ed578063bd43a9081461010b578063c38d820214610129578063ff9f414d146101595761007d565b8063140056661461008257806351872959146100b357806395e5f424146100cf575b600080fd5b61009c6004803603810190610097919061166b565b610177565b6040516100aa929190611741565b60405180910390f35b6100cd60048036038101906100c891906118a6565b610223565b005b6100d7610809565b6040516100e49190611a6e565b60405180910390f35b6100f5610a2e565b6040516101029190611a90565b60405180910390f35b610113610a79565b6040516101209190611bf5565b60405180910390f35b610143600480360381019061013e9190611c17565b610c5c565b6040516101509190611a90565b60405180910390f35b610161610d9e565b60405161016e9190611d79565b60405180910390f35b600260205280600052604060002060009150905080600001805461019a90611dca565b80601f01602080910402602001604051908101604052809291908181526020018280546101c690611dca565b80156102135780601f106101e857610100808354040283529160200191610213565b820191906000526020600020905b8154815290600101906020018083116101f657829003601f168201915b5050505050908060010154905082565b60016000808282546102359190611e2a565b9250508190555061027c6040518060400160405280601681526020017f257320776176656420772f206d657373616765202573000000000000000000008152503383611143565b60008251036103a057600160405180608001604052803373ffffffffffffffffffffffffffffffffffffffff1681526020016040518060400160405280600881526020017f416e6f6e796d7573000000000000000000000000000000000000000000000000815250815260200183815260200142815250908060018154018082558091505060019003906000526020600020906004020160009091909190915060008201518160000160006101000a81548173ffffffffffffffffffffffffffffffffffffffff021916908373ffffffffffffffffffffffffffffffffffffffff1602179055506020820151816001019081610378919061200a565b50604082015181600201908161038e919061200a565b50606082015181600301555050610482565b600160405180608001604052803373ffffffffffffffffffffffffffffffffffffffff16815260200184815260200183815260200142815250908060018154018082558091505060019003906000526020600020906004020160009091909190915060008201518160000160006101000a81548173ffffffffffffffffffffffffffffffffffffffff021916908373ffffffffffffffffffffffffffffffffffffffff160217905550602082015181600101908161045e919061200a565b506040820151816002019081610474919061200a565b506060820151816003015550505b6003339080600181540180825580915050600190039060005260206000200160009091909190916101000a81548173ffffffffffffffffffffffffffffffffffffffff021916908373ffffffffffffffffffffffffffffffffffffffff1602179055506001600260003373ffffffffffffffffffffffffffffffffffffffff1673ffffffffffffffffffffffffffffffffffffffff16815260200190815260200160002060010160008282546105389190611e2a565b925050819055506000600260003373ffffffffffffffffffffffffffffffffffffffff1673ffffffffffffffffffffffffffffffffffffffff168152602001908152602001600020600001805461058e90611dca565b90500361067a576000825103610628576040518060400160405280600981526020017f416e6f6e796d6f75730000000000000000000000000000000000000000000000815250600260003373ffffffffffffffffffffffffffffffffffffffff1673ffffffffffffffffffffffffffffffffffffffff1681526020019081526020016000206000019081610622919061200a565b50610679565b81600260003373ffffffffffffffffffffffffffffffffffffffff1673ffffffffffffffffffffffffffffffffffffffff1681526020019081526020016000206000019081610677919061200a565b505b5b6106b96040518060400160405280600d81526020017f2573206861732077617665642100000000000000000000000000000000000000815250336111e2565b3373ffffffffffffffffffffffffffffffffffffffff167f5f7e16dc676677766a70e9c5628aa6c54ddb8b6e5188e2ae1e1f17f1ffbea71642836040516107019291906120dc565b60405180910390a26000655af3107a4000905047811115610757576040517f08c379a000000000000000000000000000000000000000000000000000000000815260040161074e9061217e565b60405180910390fd5b60003373ffffffffffffffffffffffffffffffffffffffff168260405161077d906121cf565b60006040518083038185875af1925050503d80600081146107ba576040519150601f19603f3d011682016040523d82523d6000602084013e6107bf565b606091505b5050905080610803576040517f08c379a00000000000000000000000000000000000000000000000000000000081526004016107fa90612256565b60405180910390fd5b50505050565b60606000600380549050905060008167ffffffffffffffff8111156108315761083061177b565b5b60405190808252806020026020018201604052801561086a57816020015b6108576115be565b81526020019060019003908161084f5790505b50905060005b82811015610a255760006003828154811061088e5761088d612276565b5b9060005260206000200160009054906101000a900473ffffffffffffffffffffffffffffffffffffffff169050610902600383815481106108d2576108d1612276565b5b9060005260206000200160009054906101000a900473ffffffffffffffffffffffffffffffffffffffff1661127e565b83838151811061091557610914612276565b5b602002602001015160200181905250600260008273ffffffffffffffffffffffffffffffffffffffff1673ffffffffffffffffffffffffffffffffffffffff168152602001908152602001600020600001805461097190611dca565b80601f016020809104026020016040519081016040528092919081815260200182805461099d90611dca565b80156109ea5780601f106109bf576101008083540402835291602001916109ea565b820191906000526020600020905b8154815290600101906020018083116109cd57829003601f168201915b5050505050838381518110610a0257610a01612276565b5b602002602001015160000181905250508080610a1d906122a5565b915050610870565b50809250505090565b6000610a716040518060400160405280601781526020017f5765206861766520256420746f74616c2077617665732100000000000000000081525060005461146c565b600054905090565b60606001805480602002602001604051908101604052809291908181526020016000905b82821015610c5357838290600052602060002090600402016040518060800160405290816000820160009054906101000a900473ffffffffffffffffffffffffffffffffffffffff1673ffffffffffffffffffffffffffffffffffffffff1673ffffffffffffffffffffffffffffffffffffffff168152602001600182018054610b2690611dca565b80601f0160208091040260200160405190810160405280929190818152602001828054610b5290611dca565b8015610b9f5780601f10610b7457610100808354040283529160200191610b9f565b820191906000526020600020905b815481529060010190602001808311610b8257829003601f168201915b50505050508152602001600282018054610bb890611dca565b80601f0160208091040260200160405190810160405280929190818152602001828054610be490611dca565b8015610c315780601f10610c0657610100808354040283529160200191610c31565b820191906000526020600020905b815481529060010190602001808311610c1457829003601f168201915b5050505050815260200160038201548152505081526020019060010190610a9d565b50505050905090565b60008060038054905090506000835103610c7a576000915050610d99565b6000805b82811015610d9257600060038281548110610c9c57610c9b612276565b5b9060005260206000200160009054906101000a900473ffffffffffffffffffffffffffffffffffffffff1690508580519060200120600260008373ffffffffffffffffffffffffffffffffffffffff1673ffffffffffffffffffffffffffffffffffffffff168152602001908152602001600020600001604051610d209190612385565b604051809103902003610d7e57600260008273ffffffffffffffffffffffffffffffffffffffff1673ffffffffffffffffffffffffffffffffffffffff1681526020019081526020016000206001015483610d7b9190611e2a565b92505b508080610d8a906122a5565b915050610c7e565b5080925050505b919050565b60606000600380549050905060008167ffffffffffffffff811115610dc657610dc561177b565b5b604051908082528060200260200182016040528015610dff57816020015b610dec6115d8565b815260200190600190039081610de45790505b5090506000805b8381101561111557600060038281548110610e2457610e23612276565b5b9060005260206000200160009054906101000a900473ffffffffffffffffffffffffffffffffffffffff16905060006001905060005b84811015610f6c57600260008473ffffffffffffffffffffffffffffffffffffffff1673ffffffffffffffffffffffffffffffffffffffff168152602001908152602001600020600001604051610eb19190612385565b6040518091039020868281518110610ecc57610ecb612276565b5b60200260200101516000015180519060200120148015610f4b5750600260008473ffffffffffffffffffffffffffffffffffffffff1673ffffffffffffffffffffffffffffffffffffffff16815260200190815260200160002060010154868281518110610f3d57610f3c612276565b5b602002602001015160200151145b15610f595760009150610f6c565b8080610f64906122a5565b915050610e5a565b50801561110057600260008373ffffffffffffffffffffffffffffffffffffffff1673ffffffffffffffffffffffffffffffffffffffff1681526020019081526020016000206000018054610fc090611dca565b80601f0160208091040260200160405190810160405280929190818152602001828054610fec90611dca565b80156110395780601f1061100e57610100808354040283529160200191611039565b820191906000526020600020905b81548152906001019060200180831161101c57829003601f168201915b505050505085858151811061105157611050612276565b5b602002602001015160000181905250600260008373ffffffffffffffffffffffffffffffffffffffff1673ffffffffffffffffffffffffffffffffffffffff168152602001908152602001600020600101548585815181106110b6576110b5612276565b5b602002602001015160200181815250506110cf8261127e565b8585815181106110e2576110e1612276565b5b60200260200101516040018190525083806110fc906122a5565b9450505b5050808061110d906122a5565b915050610e06565b5080825281935050505090565b60006a636f6e736f6c652e6c6f679050600080835160208501845afa505050565b6111dd83838360405160240161115b939291906123ab565b6040516020818303038152906040527fe0e9ad4f000000000000000000000000000000000000000000000000000000007bffffffffffffffffffffffffffffffffffffffffffffffffffffffff19166020820180517bffffffffffffffffffffffffffffffffffffffffffffffffffffffff8381831617835250505050611508565b505050565b61127a82826040516024016111f89291906123f0565b6040516020818303038152906040527f319af333000000000000000000000000000000000000000000000000000000007bffffffffffffffffffffffffffffffffffffffffffffffffffffffff19166020820180517bffffffffffffffffffffffffffffffffffffffffffffffffffffffff8381831617835250505050611508565b5050565b606060008273ffffffffffffffffffffffffffffffffffffffff1660001b90506000602a67ffffffffffffffff8111156112bb576112ba61177b565b5b6040519080825280601f01601f1916602001820160405280156112ed5781602001600182028036833780820191505090505b50905060005b601481101561144257600081601361130b9190612420565b60086113179190612454565b600261132391906125c9565b8460001c6113319190612643565b60f81b9050600060108260f81c6113489190612681565b60f81b905060008160f81c601061135f91906126b2565b8360f81c61136d91906126ef565b60f81b905061137b82611522565b856002866113899190612454565b8151811061139a57611399612276565b5b60200101907effffffffffffffffffffffffffffffffffffffffffffffffffffffffffffff1916908160001a9053506113d281611522565b8560016002876113e29190612454565b6113ec9190611e2a565b815181106113fd576113fc612276565b5b60200101907effffffffffffffffffffffffffffffffffffffffffffffffffffffffffffff1916908160001a905350505050808061143a906122a5565b9150506112f3565b508060405160200161145491906127b7565b60405160208183030381529060405292505050919050565b6115048282604051602401611482929190611741565b6040516020818303038152906040527fb60e72cc000000000000000000000000000000000000000000000000000000007bffffffffffffffffffffffffffffffffffffffffffffffffffffffff19166020820180517bffffffffffffffffffffffffffffffffffffffffffffffffffffffff8381831617835250505050611508565b5050565b61151f816115176111226115a9565b63ffffffff16565b50565b6000600a60f81b7effffffffffffffffffffffffffffffffffffffffffffffffffffffffffffff1916827effffffffffffffffffffffffffffffffffffffffffffffffffffffffffffff1916101561158e5760308260f81c61158491906127d9565b60f81b90506115a4565b60578260f81c61159e91906127d9565b60f81b90505b919050565b6115b4819050919050565b6115bc61280e565b565b604051806040016040528060608152602001606081525090565b60405180606001604052806060815260200160008152602001606081525090565b6000604051905090565b600080fd5b600080fd5b600073ffffffffffffffffffffffffffffffffffffffff82169050919050565b60006116388261160d565b9050919050565b6116488161162d565b811461165357600080fd5b50565b6000813590506116658161163f565b92915050565b60006020828403121561168157611680611603565b5b600061168f84828501611656565b91505092915050565b600081519050919050565b600082825260208201905092915050565b60005b838110156116d25780820151818401526020810190506116b7565b60008484015250505050565b6000601f19601f8301169050919050565b60006116fa82611698565b61170481856116a3565b93506117148185602086016116b4565b61171d816116de565b840191505092915050565b6000819050919050565b61173b81611728565b82525050565b6000604082019050818103600083015261175b81856116ef565b905061176a6020830184611732565b9392505050565b600080fd5b600080fd5b7f4e487b7100000000000000000000000000000000000000000000000000000000600052604160045260246000fd5b6117b3826116de565b810181811067ffffffffffffffff821117156117d2576117d161177b565b5b80604052505050565b60006117e56115f9565b90506117f182826117aa565b919050565b600067ffffffffffffffff8211156118115761181061177b565b5b61181a826116de565b9050602081019050919050565b82818337600083830152505050565b6000611849611844846117f6565b6117db565b90508281526020810184848401111561186557611864611776565b5b611870848285611827565b509392505050565b600082601f83011261188d5761188c611771565b5b813561189d848260208601611836565b91505092915050565b600080604083850312156118bd576118bc611603565b5b600083013567ffffffffffffffff8111156118db576118da611608565b5b6118e785828601611878565b925050602083013567ffffffffffffffff81111561190857611907611608565b5b61191485828601611878565b9150509250929050565b600081519050919050565b600082825260208201905092915050565b6000819050602082019050919050565b600082825260208201905092915050565b600061196682611698565b611970818561194a565b93506119808185602086016116b4565b611989816116de565b840191505092915050565b600060408301600083015184820360008601526119b1828261195b565b915050602083015184820360208601526119cb828261195b565b9150508091505092915050565b60006119e48383611994565b905092915050565b6000602082019050919050565b6000611a048261191e565b611a0e8185611929565b935083602082028501611a208561193a565b8060005b85811015611a5c5784840389528151611a3d85826119d8565b9450611a48836119ec565b925060208a01995050600181019050611a24565b50829750879550505050505092915050565b60006020820190508181036000830152611a8881846119f9565b905092915050565b6000602082019050611aa56000830184611732565b92915050565b600081519050919050565b600082825260208201905092915050565b6000819050602082019050919050565b611ae08161162d565b82525050565b611aef81611728565b82525050565b6000608083016000830151611b0d6000860182611ad7565b5060208301518482036020860152611b25828261195b565b91505060408301518482036040860152611b3f828261195b565b9150506060830151611b546060860182611ae6565b508091505092915050565b6000611b6b8383611af5565b905092915050565b6000602082019050919050565b6000611b8b82611aab565b611b958185611ab6565b935083602082028501611ba785611ac7565b8060005b85811015611be35784840389528151611bc48582611b5f565b9450611bcf83611b73565b925060208a01995050600181019050611bab565b50829750879550505050505092915050565b60006020820190508181036000830152611c0f8184611b80565b905092915050565b600060208284031215611c2d57611c2c611603565b5b600082013567ffffffffffffffff811115611c4b57611c4a611608565b5b611c5784828501611878565b91505092915050565b600081519050919050565b600082825260208201905092915050565b6000819050602082019050919050565b60006060830160008301518482036000860152611ca9828261195b565b9150506020830151611cbe6020860182611ae6565b5060408301518482036040860152611cd6828261195b565b9150508091505092915050565b6000611cef8383611c8c565b905092915050565b6000602082019050919050565b6000611d0f82611c60565b611d198185611c6b565b935083602082028501611d2b85611c7c565b8060005b85811015611d675784840389528151611d488582611ce3565b9450611d5383611cf7565b925060208a01995050600181019050611d2f565b50829750879550505050505092915050565b60006020820190508181036000830152611d938184611d04565b905092915050565b7f4e487b7100000000000000000000000000000000000000000000000000000000600052602260045260246000fd5b60006002820490506001821680611de257607f821691505b602082108103611df557611df4611d9b565b5b50919050565b7f4e487b7100000000000000000000000000000000000000000000000000000000600052601160045260246000fd5b6000611e3582611728565b9150611e4083611728565b9250828201905080821115611e5857611e57611dfb565b5b92915050565b60008190508160005260206000209050919050565b60006020601f8301049050919050565b600082821b905092915050565b600060088302611ec07fffffffffffffffffffffffffffffffffffffffffffffffffffffffffffffffff82611e83565b611eca8683611e83565b95508019841693508086168417925050509392505050565b6000819050919050565b6000611f07611f02611efd84611728565b611ee2565b611728565b9050919050565b6000819050919050565b611f2183611eec565b611f35611f2d82611f0e565b848454611e90565b825550505050565b600090565b611f4a611f3d565b611f55818484611f18565b505050565b5b81811015611f7957611f6e600082611f42565b600181019050611f5b565b5050565b601f821115611fbe57611f8f81611e5e565b611f9884611e73565b81016020851015611fa7578190505b611fbb611fb385611e73565b830182611f5a565b50505b505050565b600082821c905092915050565b6000611fe160001984600802611fc3565b1980831691505092915050565b6000611ffa8383611fd0565b9150826002028217905092915050565b61201382611698565b67ffffffffffffffff81111561202c5761202b61177b565b5b6120368254611dca565b612041828285611f7d565b600060209050601f8311600181146120745760008415612062578287015190505b61206c8582611fee565b8655506120d4565b601f19841661208286611e5e565b60005b828110156120aa57848901518255600182019150602085019450602081019050612085565b868310156120c757848901516120c3601f891682611fd0565b8355505b6001600288020188555050505b505050505050565b60006040820190506120f16000830185611732565b818103602083015261210381846116ef565b90509392505050565b7f547279696e6720746f207769746864726177206d6f7265206d6f6e657920746860008201527f616e2074686520636f6e7472616374206861732e000000000000000000000000602082015250565b60006121686034836116a3565b91506121738261210c565b604082019050919050565b600060208201905081810360008301526121978161215b565b9050919050565b600081905092915050565b50565b60006121b960008361219e565b91506121c4826121a9565b600082019050919050565b60006121da826121ac565b9150819050919050565b7f4661696c656420746f207769746864726177206d6f6e65792066726f6d20636f60008201527f6e74726163742e00000000000000000000000000000000000000000000000000602082015250565b60006122406027836116a3565b915061224b826121e4565b604082019050919050565b6000602082019050818103600083015261226f81612233565b9050919050565b7f4e487b7100000000000000000000000000000000000000000000000000000000600052603260045260246000fd5b60006122b082611728565b91507fffffffffffffffffffffffffffffffffffffffffffffffffffffffffffffffff82036122e2576122e1611dfb565b5b600182019050919050565b60008190508160005260206000209050919050565b6000815461230f81611dca565b612319818661219e565b9450600182166000811461233457600181146123495761237c565b60ff198316865281151582028601935061237c565b612352856122ed565b60005b8381101561237457815481890152600182019150602081019050612355565b838801955050505b50505092915050565b60006123918284612302565b915081905092915050565b6123a58161162d565b82525050565b600060608201905081810360008301526123c581866116ef565b90506123d4602083018561239c565b81810360408301526123e681846116ef565b9050949350505050565b6000604082019050818103600083015261240a81856116ef565b9050612419602083018461239c565b9392505050565b600061242b82611728565b915061243683611728565b925082820390508181111561244e5761244d611dfb565b5b92915050565b600061245f82611728565b915061246a83611728565b925082820261247881611728565b9150828204841483151761248f5761248e611dfb565b5b5092915050565b60008160011c9050919050565b6000808291508390505b60018511156124ed578086048111156124c9576124c8611dfb565b5b60018516156124d85780820291505b80810290506124e685612496565b94506124ad565b94509492505050565b60008261250657600190506125c2565b8161251457600090506125c2565b816001811461252a576002811461253457612563565b60019150506125c2565b60ff84111561254657612545611dfb565b5b8360020a91508482111561255d5761255c611dfb565b5b506125c2565b5060208310610133831016604e8410600b84101617156125985782820a90508381111561259357612592611dfb565b5b6125c2565b6125a584848460016124a3565b925090508184048111156125bc576125bb611dfb565b5b81810290505b9392505050565b60006125d482611728565b91506125df83611728565b925061260c7fffffffffffffffffffffffffffffffffffffffffffffffffffffffffffffffff84846124f6565b905092915050565b7f4e487b7100000000000000000000000000000000000000000000000000000000600052601260045260246000fd5b600061264e82611728565b915061265983611728565b92508261266957612668612614565b5b828204905092915050565b600060ff82169050919050565b600061268c82612674565b915061269783612674565b9250826126a7576126a6612614565b5b828204905092915050565b60006126bd82612674565b91506126c883612674565b92508282026126d681612674565b91508082146126e8576126e7611dfb565b5b5092915050565b60006126fa82612674565b915061270583612674565b9250828203905060ff81111561271e5761271d611dfb565b5b92915050565b600081905092915050565b7f3078000000000000000000000000000000000000000000000000000000000000600082015250565b6000612765600283612724565b91506127708261272f565b600282019050919050565b600081519050919050565b60006127918261277b565b61279b818561219e565b93506127ab8185602086016116b4565b80840191505092915050565b60006127c282612758565b91506127ce8284612786565b915081905092915050565b60006127e482612674565b91506127ef83612674565b9250828201905060ff81111561280857612807611dfb565b5b92915050565b7f4e487b7100000000000000000000000000000000000000000000000000000000600052605160045260246000fdfea2646970667358221220f327d66692448c5e882c20c53849fa4f29b2e4c05345176a394ede3abb47b05e64736f6c6343000813003354686572652073746172747320746865206a6f75726e6579206f662061204c4547454e442120",
  "linkReferences": {},
  "deployedLinkReferences": {}
}