{
  "_format": "hh-sol-artifact-1",
  "contractName": "WavePortal",
  "sourceName": "contracts/WavePortal.sol",
  "abi": [
    {
      "inputs": [],
      "stateMutability": "nonpayable",
      "type": "constructor"
    },
    {
      "inputs": [],
      "name": "getTotalWaves",
      "outputs": [
        {
          "internalType": "uint256",
          "name": "",
          "type": "uint256"
        }
      ],
      "stateMutability": "view",
      "type": "function"
    },
    {
      "inputs": [],
      "name": "getWaverLogs",
      "outputs": [
        {
          "components": [
            {
              "internalType": "string",
              "name": "name",
              "type": "string"
            },
            {
              "internalType": "string",
              "name": "addressString",
              "type": "string"
            }
          ],
          "internalType": "struct WavePortal.WaveAddress[]",
          "name": "",
          "type": "tuple[]"
        }
      ],
      "stateMutability": "view",
      "type": "function"
    },
    {
      "inputs": [],
      "name": "getWaversData",
      "outputs": [
        {
          "components": [
            {
              "internalType": "string",
              "name": "name",
              "type": "string"
            },
            {
              "internalType": "uint256",
              "name": "waveCount",
              "type": "uint256"
            },
            {
              "internalType": "string",
              "name": "addressString",
              "type": "string"
            }
          ],
          "internalType": "struct WavePortal.ReturnWaveData[]",
          "name": "",
          "type": "tuple[]"
        }
      ],
      "stateMutability": "view",
      "type": "function"
    },
    {
      "inputs": [
        {
          "internalType": "string",
          "name": "_name",
          "type": "string"
        }
      ],
      "name": "getWavesFor",
      "outputs": [
        {
          "internalType": "uint256",
          "name": "",
          "type": "uint256"
        }
      ],
      "stateMutability": "view",
      "type": "function"
    },
    {
      "inputs": [
        {
          "internalType": "string",
          "name": "_name",
          "type": "string"
        }
      ],
      "name": "wave",
      "outputs": [],
      "stateMutability": "nonpayable",
      "type": "function"
    },
    {
      "inputs": [
        {
          "internalType": "address",
          "name": "",
          "type": "address"
        }
      ],
      "name": "waveData",
      "outputs": [
        {
          "internalType": "string",
          "name": "name",
          "type": "string"
        },
        {
          "internalType": "uint256",
          "name": "waveCount",
          "type": "uint256"
        }
      ],
      "stateMutability": "view",
      "type": "function"
    }
  ],
  "bytecode": "0x60806040523480156200001157600080fd5b506200003c604051806060016040528060268152602001620021dd602691396200005360201b60201c565b6200004d33620000f660201b60201c565b62000352565b620000f3816040516024016200006a91906200029d565b6040516020818303038152906040527f41304fac000000000000000000000000000000000000000000000000000000007bffffffffffffffffffffffffffffffffffffffffffffffffffffffff19166020820180517bffffffffffffffffffffffffffffffffffffffffffffffffffffffff83818316178352505050506200019960201b60201c565b50565b62000196816040516024016200010d919062000306565b6040516020818303038152906040527f2c2ecbc2000000000000000000000000000000000000000000000000000000007bffffffffffffffffffffffffffffffffffffffffffffffffffffffff19166020820180517bffffffffffffffffffffffffffffffffffffffffffffffffffffffff83818316178352505050506200019960201b60201c565b50565b620001bf81620001ba620001c260201b62000b7217620001e360201b60201c565b60201c565b50565b60006a636f6e736f6c652e6c6f679050600080835160208501845afa505050565b620001f760201b62000f6517819050919050565b6200020162000323565b565b600081519050919050565b600082825260208201905092915050565b60005b838110156200023f57808201518184015260208101905062000222565b60008484015250505050565b6000601f19601f8301169050919050565b6000620002698262000203565b6200027581856200020e565b9350620002878185602086016200021f565b62000292816200024b565b840191505092915050565b60006020820190508181036000830152620002b981846200025c565b905092915050565b600073ffffffffffffffffffffffffffffffffffffffff82169050919050565b6000620002ee82620002c1565b9050919050565b6200030081620002e1565b82525050565b60006020820190506200031d6000830184620002f5565b92915050565b7f4e487b7100000000000000000000000000000000000000000000000000000000600052605160045260246000fd5b611e7b80620003626000396000f3fe608060405234801561001057600080fd5b50600436106100625760003560e01c80631400566614610067578063449d46c01461009857806395e5f424146100b45780639a2cdc08146100d2578063c38d8202146100f0578063ff9f414d14610120575b600080fd5b610081600480360381019061007c919061101c565b61013e565b60405161008f9291906110f2565b60405180910390f35b6100b260048036038101906100ad9190611257565b6101ea565b005b6100bc61043c565b6040516100c991906113f0565b60405180910390f35b6100da610661565b6040516100e79190611412565b60405180910390f35b61010a60048036038101906101059190611257565b6106ac565b6040516101179190611412565b60405180910390f35b6101286107ee565b6040516101359190611555565b60405180910390f35b6001602052806000526040600020600091509050806000018054610161906115a6565b80601f016020809104026020016040519081016040528092919081815260200182805461018d906115a6565b80156101da5780601f106101af576101008083540402835291602001916101da565b820191906000526020600020905b8154815290600101906020018083116101bd57829003601f168201915b5050505050908060010154905082565b60016000808282546101fc9190611606565b925050819055506002339080600181540180825580915050600190039060005260206000200160009091909190916101000a81548173ffffffffffffffffffffffffffffffffffffffff021916908373ffffffffffffffffffffffffffffffffffffffff16021790555060018060003373ffffffffffffffffffffffffffffffffffffffff1673ffffffffffffffffffffffffffffffffffffffff16815260200190815260200160002060010160008282546102b89190611606565b925050819055506000600160003373ffffffffffffffffffffffffffffffffffffffff1673ffffffffffffffffffffffffffffffffffffffff168152602001908152602001600020600001805461030e906115a6565b9050036103fa5760008151036103a8576040518060400160405280600981526020017f416e6f6e796d6f75730000000000000000000000000000000000000000000000815250600160003373ffffffffffffffffffffffffffffffffffffffff1673ffffffffffffffffffffffffffffffffffffffff16815260200190815260200160002060000190816103a291906117e6565b506103f9565b80600160003373ffffffffffffffffffffffffffffffffffffffff1673ffffffffffffffffffffffffffffffffffffffff16815260200190815260200160002060000190816103f791906117e6565b505b5b6104396040518060400160405280600d81526020017f257320686173207761766564210000000000000000000000000000000000000081525033610b93565b50565b60606000600280549050905060008167ffffffffffffffff8111156104645761046361112c565b5b60405190808252806020026020018201604052801561049d57816020015b61048a610f6f565b8152602001906001900390816104825790505b50905060005b82811015610658576000600282815481106104c1576104c06118b8565b5b9060005260206000200160009054906101000a900473ffffffffffffffffffffffffffffffffffffffff16905061053560028381548110610505576105046118b8565b5b9060005260206000200160009054906101000a900473ffffffffffffffffffffffffffffffffffffffff16610c2f565b838381518110610548576105476118b8565b5b602002602001015160200181905250600160008273ffffffffffffffffffffffffffffffffffffffff1673ffffffffffffffffffffffffffffffffffffffff16815260200190815260200160002060000180546105a4906115a6565b80601f01602080910402602001604051908101604052809291908181526020018280546105d0906115a6565b801561061d5780601f106105f25761010080835404028352916020019161061d565b820191906000526020600020905b81548152906001019060200180831161060057829003601f168201915b5050505050838381518110610635576106346118b8565b5b602002602001015160000181905250508080610650906118e7565b9150506104a3565b50809250505090565b60006106a46040518060400160405280601781526020017f5765206861766520256420746f74616c20776176657321000000000000000000815250600054610e1d565b600054905090565b600080600280549050905060008351036106ca5760009150506107e9565b6000805b828110156107e2576000600282815481106106ec576106eb6118b8565b5b9060005260206000200160009054906101000a900473ffffffffffffffffffffffffffffffffffffffff1690508580519060200120600160008373ffffffffffffffffffffffffffffffffffffffff1673ffffffffffffffffffffffffffffffffffffffff16815260200190815260200160002060000160405161077091906119d2565b6040518091039020036107ce57600160008273ffffffffffffffffffffffffffffffffffffffff1673ffffffffffffffffffffffffffffffffffffffff16815260200190815260200160002060010154836107cb9190611606565b92505b5080806107da906118e7565b9150506106ce565b5080925050505b919050565b60606000600280549050905060008167ffffffffffffffff8111156108165761081561112c565b5b60405190808252806020026020018201604052801561084f57816020015b61083c610f89565b8152602001906001900390816108345790505b5090506000805b83811015610b6557600060028281548110610874576108736118b8565b5b9060005260206000200160009054906101000a900473ffffffffffffffffffffffffffffffffffffffff16905060006001905060005b848110156109bc57600160008473ffffffffffffffffffffffffffffffffffffffff1673ffffffffffffffffffffffffffffffffffffffff16815260200190815260200160002060000160405161090191906119d2565b604051809103902086828151811061091c5761091b6118b8565b5b6020026020010151600001518051906020012014801561099b5750600160008473ffffffffffffffffffffffffffffffffffffffff1673ffffffffffffffffffffffffffffffffffffffff1681526020019081526020016000206001015486828151811061098d5761098c6118b8565b5b602002602001015160200151145b156109a957600091506109bc565b80806109b4906118e7565b9150506108aa565b508015610b5057600160008373ffffffffffffffffffffffffffffffffffffffff1673ffffffffffffffffffffffffffffffffffffffff1681526020019081526020016000206000018054610a10906115a6565b80601f0160208091040260200160405190810160405280929190818152602001828054610a3c906115a6565b8015610a895780601f10610a5e57610100808354040283529160200191610a89565b820191906000526020600020905b815481529060010190602001808311610a6c57829003601f168201915b5050505050858581518110610aa157610aa06118b8565b5b602002602001015160000181905250600160008373ffffffffffffffffffffffffffffffffffffffff1673ffffffffffffffffffffffffffffffffffffffff16815260200190815260200160002060010154858581518110610b0657610b056118b8565b5b60200260200101516020018181525050610b1f82610c2f565b858581518110610b3257610b316118b8565b5b6020026020010151604001819052508380610b4c906118e7565b9450505b50508080610b5d906118e7565b915050610856565b5080825281935050505090565b60006a636f6e736f6c652e6c6f679050600080835160208501845afa505050565b610c2b8282604051602401610ba99291906119f8565b6040516020818303038152906040527f319af333000000000000000000000000000000000000000000000000000000007bffffffffffffffffffffffffffffffffffffffffffffffffffffffff19166020820180517bffffffffffffffffffffffffffffffffffffffffffffffffffffffff8381831617835250505050610eb9565b5050565b606060008273ffffffffffffffffffffffffffffffffffffffff1660001b90506000602a67ffffffffffffffff811115610c6c57610c6b61112c565b5b6040519080825280601f01601f191660200182016040528015610c9e5781602001600182028036833780820191505090505b50905060005b6014811015610df3576000816013610cbc9190611a28565b6008610cc89190611a5c565b6002610cd49190611bd1565b8460001c610ce29190611c4b565b60f81b9050600060108260f81c610cf99190611c89565b60f81b905060008160f81c6010610d109190611cba565b8360f81c610d1e9190611cf7565b60f81b9050610d2c82610ed3565b85600286610d3a9190611a5c565b81518110610d4b57610d4a6118b8565b5b60200101907effffffffffffffffffffffffffffffffffffffffffffffffffffffffffffff1916908160001a905350610d8381610ed3565b856001600287610d939190611a5c565b610d9d9190611606565b81518110610dae57610dad6118b8565b5b60200101907effffffffffffffffffffffffffffffffffffffffffffffffffffffffffffff1916908160001a9053505050508080610deb906118e7565b915050610ca4565b5080604051602001610e059190611dbf565b60405160208183030381529060405292505050919050565b610eb58282604051602401610e339291906110f2565b6040516020818303038152906040527fb60e72cc000000000000000000000000000000000000000000000000000000007bffffffffffffffffffffffffffffffffffffffffffffffffffffffff19166020820180517bffffffffffffffffffffffffffffffffffffffffffffffffffffffff8381831617835250505050610eb9565b5050565b610ed081610ec8610b72610f5a565b63ffffffff16565b50565b6000600a60f81b7effffffffffffffffffffffffffffffffffffffffffffffffffffffffffffff1916827effffffffffffffffffffffffffffffffffffffffffffffffffffffffffffff19161015610f3f5760308260f81c610f359190611de1565b60f81b9050610f55565b60578260f81c610f4f9190611de1565b60f81b90505b919050565b610f65819050919050565b610f6d611e16565b565b604051806040016040528060608152602001606081525090565b60405180606001604052806060815260200160008152602001606081525090565b6000604051905090565b600080fd5b600080fd5b600073ffffffffffffffffffffffffffffffffffffffff82169050919050565b6000610fe982610fbe565b9050919050565b610ff981610fde565b811461100457600080fd5b50565b60008135905061101681610ff0565b92915050565b60006020828403121561103257611031610fb4565b5b600061104084828501611007565b91505092915050565b600081519050919050565b600082825260208201905092915050565b60005b83811015611083578082015181840152602081019050611068565b60008484015250505050565b6000601f19601f8301169050919050565b60006110ab82611049565b6110b58185611054565b93506110c5818560208601611065565b6110ce8161108f565b840191505092915050565b6000819050919050565b6110ec816110d9565b82525050565b6000604082019050818103600083015261110c81856110a0565b905061111b60208301846110e3565b9392505050565b600080fd5b600080fd5b7f4e487b7100000000000000000000000000000000000000000000000000000000600052604160045260246000fd5b6111648261108f565b810181811067ffffffffffffffff821117156111835761118261112c565b5b80604052505050565b6000611196610faa565b90506111a2828261115b565b919050565b600067ffffffffffffffff8211156111c2576111c161112c565b5b6111cb8261108f565b9050602081019050919050565b82818337600083830152505050565b60006111fa6111f5846111a7565b61118c565b90508281526020810184848401111561121657611215611127565b5b6112218482856111d8565b509392505050565b600082601f83011261123e5761123d611122565b5b813561124e8482602086016111e7565b91505092915050565b60006020828403121561126d5761126c610fb4565b5b600082013567ffffffffffffffff81111561128b5761128a610fb9565b5b61129784828501611229565b91505092915050565b600081519050919050565b600082825260208201905092915050565b6000819050602082019050919050565b600082825260208201905092915050565b60006112e882611049565b6112f281856112cc565b9350611302818560208601611065565b61130b8161108f565b840191505092915050565b6000604083016000830151848203600086015261133382826112dd565b9150506020830151848203602086015261134d82826112dd565b9150508091505092915050565b60006113668383611316565b905092915050565b6000602082019050919050565b6000611386826112a0565b61139081856112ab565b9350836020820285016113a2856112bc565b8060005b858110156113de57848403895281516113bf858261135a565b94506113ca8361136e565b925060208a019950506001810190506113a6565b50829750879550505050505092915050565b6000602082019050818103600083015261140a818461137b565b905092915050565b600060208201905061142760008301846110e3565b92915050565b600081519050919050565b600082825260208201905092915050565b6000819050602082019050919050565b611462816110d9565b82525050565b6000606083016000830151848203600086015261148582826112dd565b915050602083015161149a6020860182611459565b50604083015184820360408601526114b282826112dd565b9150508091505092915050565b60006114cb8383611468565b905092915050565b6000602082019050919050565b60006114eb8261142d565b6114f58185611438565b93508360208202850161150785611449565b8060005b85811015611543578484038952815161152485826114bf565b945061152f836114d3565b925060208a0199505060018101905061150b565b50829750879550505050505092915050565b6000602082019050818103600083015261156f81846114e0565b905092915050565b7f4e487b7100000000000000000000000000000000000000000000000000000000600052602260045260246000fd5b600060028204905060018216806115be57607f821691505b6020821081036115d1576115d0611577565b5b50919050565b7f4e487b7100000000000000000000000000000000000000000000000000000000600052601160045260246000fd5b6000611611826110d9565b915061161c836110d9565b9250828201905080821115611634576116336115d7565b5b92915050565b60008190508160005260206000209050919050565b60006020601f8301049050919050565b600082821b905092915050565b60006008830261169c7fffffffffffffffffffffffffffffffffffffffffffffffffffffffffffffffff8261165f565b6116a6868361165f565b95508019841693508086168417925050509392505050565b6000819050919050565b60006116e36116de6116d9846110d9565b6116be565b6110d9565b9050919050565b6000819050919050565b6116fd836116c8565b611711611709826116ea565b84845461166c565b825550505050565b600090565b611726611719565b6117318184846116f4565b505050565b5b818110156117555761174a60008261171e565b600181019050611737565b5050565b601f82111561179a5761176b8161163a565b6117748461164f565b81016020851015611783578190505b61179761178f8561164f565b830182611736565b50505b505050565b600082821c905092915050565b60006117bd6000198460080261179f565b1980831691505092915050565b60006117d683836117ac565b9150826002028217905092915050565b6117ef82611049565b67ffffffffffffffff8111156118085761180761112c565b5b61181282546115a6565b61181d828285611759565b600060209050601f831160018114611850576000841561183e578287015190505b61184885826117ca565b8655506118b0565b601f19841661185e8661163a565b60005b8281101561188657848901518255600182019150602085019450602081019050611861565b868310156118a3578489015161189f601f8916826117ac565b8355505b6001600288020188555050505b505050505050565b7f4e487b7100000000000000000000000000000000000000000000000000000000600052603260045260246000fd5b60006118f2826110d9565b91507fffffffffffffffffffffffffffffffffffffffffffffffffffffffffffffffff8203611924576119236115d7565b5b600182019050919050565b600081905092915050565b60008190508160005260206000209050919050565b6000815461195c816115a6565b611966818661192f565b945060018216600081146119815760018114611996576119c9565b60ff19831686528115158202860193506119c9565b61199f8561193a565b60005b838110156119c1578154818901526001820191506020810190506119a2565b838801955050505b50505092915050565b60006119de828461194f565b915081905092915050565b6119f281610fde565b82525050565b60006040820190508181036000830152611a1281856110a0565b9050611a2160208301846119e9565b9392505050565b6000611a33826110d9565b9150611a3e836110d9565b9250828203905081811115611a5657611a556115d7565b5b92915050565b6000611a67826110d9565b9150611a72836110d9565b9250828202611a80816110d9565b91508282048414831517611a9757611a966115d7565b5b5092915050565b60008160011c9050919050565b6000808291508390505b6001851115611af557808604811115611ad157611ad06115d7565b5b6001851615611ae05780820291505b8081029050611aee85611a9e565b9450611ab5565b94509492505050565b600082611b0e5760019050611bca565b81611b1c5760009050611bca565b8160018114611b325760028114611b3c57611b6b565b6001915050611bca565b60ff841115611b4e57611b4d6115d7565b5b8360020a915084821115611b6557611b646115d7565b5b50611bca565b5060208310610133831016604e8410600b8410161715611ba05782820a905083811115611b9b57611b9a6115d7565b5b611bca565b611bad8484846001611aab565b92509050818404811115611bc457611bc36115d7565b5b81810290505b9392505050565b6000611bdc826110d9565b9150611be7836110d9565b9250611c147fffffffffffffffffffffffffffffffffffffffffffffffffffffffffffffffff8484611afe565b905092915050565b7f4e487b7100000000000000000000000000000000000000000000000000000000600052601260045260246000fd5b6000611c56826110d9565b9150611c61836110d9565b925082611c7157611c70611c1c565b5b828204905092915050565b600060ff82169050919050565b6000611c9482611c7c565b9150611c9f83611c7c565b925082611caf57611cae611c1c565b5b828204905092915050565b6000611cc582611c7c565b9150611cd083611c7c565b9250828202611cde81611c7c565b9150808214611cf057611cef6115d7565b5b5092915050565b6000611d0282611c7c565b9150611d0d83611c7c565b9250828203905060ff811115611d2657611d256115d7565b5b92915050565b600081905092915050565b7f3078000000000000000000000000000000000000000000000000000000000000600082015250565b6000611d6d600283611d2c565b9150611d7882611d37565b600282019050919050565b600081519050919050565b6000611d9982611d83565b611da3818561192f565b9350611db3818560208601611065565b80840191505092915050565b6000611dca82611d60565b9150611dd68284611d8e565b915081905092915050565b6000611dec82611c7c565b9150611df783611c7c565b9250828201905060ff811115611e1057611e0f6115d7565b5b92915050565b7f4e487b7100000000000000000000000000000000000000000000000000000000600052605160045260246000fdfea2646970667358221220f512a509bf3c31b9c07caba0fdd953a797597dd9abe6ee73af88355aa557a75264736f6c6343000813003354686572652073746172747320746865206a6f75726e6579206f662061204c4547454e442120",
  "linkReferences": {},
  "deployedLinkReferences": {}
}